{
  "_format": "hh-sol-artifact-1",
  "contractName": "AnonAadhaarVerifier",
  "sourceName": "contracts/AnonAadhaarVerifier.sol",
  "abi": [
    {
      "inputs": [
        {
          "internalType": "address",
          "name": "_verifierAddr",
          "type": "address"
        },
        {
          "internalType": "uint256",
          "name": "_appId",
          "type": "uint256"
        }
      ],
      "stateMutability": "nonpayable",
      "type": "constructor"
    },
    {
      "inputs": [
        {
          "internalType": "uint256",
          "name": "",
          "type": "uint256"
        }
      ],
      "name": "ISSUER_MODULUS",
      "outputs": [
        {
          "internalType": "uint256",
          "name": "",
          "type": "uint256"
        }
      ],
      "stateMutability": "view",
      "type": "function"
    },
    {
      "inputs": [],
      "name": "SNARK_SCALAR_FIELD",
      "outputs": [
        {
          "internalType": "uint256",
          "name": "",
          "type": "uint256"
        }
      ],
      "stateMutability": "view",
      "type": "function"
    },
    {
      "inputs": [],
      "name": "appId",
      "outputs": [
        {
          "internalType": "uint256",
          "name": "",
          "type": "uint256"
        }
      ],
      "stateMutability": "view",
      "type": "function"
    },
    {
      "inputs": [],
      "name": "verifierAddr",
      "outputs": [
        {
          "internalType": "address",
          "name": "",
          "type": "address"
        }
      ],
      "stateMutability": "view",
      "type": "function"
    },
    {
      "inputs": [
        {
          "internalType": "uint256[2]",
          "name": "a",
          "type": "uint256[2]"
        },
        {
          "internalType": "uint256[2][2]",
          "name": "b",
          "type": "uint256[2][2]"
        },
        {
          "internalType": "uint256[2]",
          "name": "c",
          "type": "uint256[2]"
        },
        {
          "internalType": "uint256[34]",
          "name": "input",
          "type": "uint256[34]"
        }
      ],
      "name": "verifyProof",
      "outputs": [
        {
          "internalType": "bool",
          "name": "",
          "type": "bool"
        }
      ],
      "stateMutability": "view",
      "type": "function"
    }
  ],
  "bytecode": "0x60806040527f30644e72e131a029b85045b68181585d2833e84879b9709143e1f593f0000001600255604051806104000160405280676d4411bc9b53609567ffffffffffffffff16815260200167bb0b61d2472c234a67ffffffffffffffff16815260200167143bff835dbd2bd567ffffffffffffffff1681526020016766adf06a8a41dedf67ffffffffffffffff16815260200167abdebea076a1cf8167ffffffffffffffff16815260200167c7a8b10c0bddebab67ffffffffffffffff168152602001671f69b1e3bbe7949d67ffffffffffffffff1681526020016731f7f48d43af7cf367ffffffffffffffff16815260200167b5c168afdc95121767ffffffffffffffff1681526020016777bea6358436732967ffffffffffffffff1681526020016704c486f1f5d5303967ffffffffffffffff16815260200167926de3adf3ecbb9967ffffffffffffffff16815260200167974f1c7c5115819c67ffffffffffffffff16815260200167384bf58a41c384c367ffffffffffffffff16815260200167f687f7e55bd226a267ffffffffffffffff16815260200167474b08d32d1d040667ffffffffffffffff168152602001672102a4cae093bffd67ffffffffffffffff168152602001675ca69b48ce93005267ffffffffffffffff168152602001674b64158e9f43d9f367ffffffffffffffff16815260200167b2481861c65085d867ffffffffffffffff168152602001672fa954aa52aa6fff67ffffffffffffffff1681526020016715488474b45c2c9867ffffffffffffffff16815260200167fced241d072055dc67ffffffffffffffff168152602001678bcdf859d3daf7f367ffffffffffffffff16815260200167709db2141e6c07c667ffffffffffffffff1681526020016769edbd5cc83b74c767ffffffffffffffff1681526020016725ab0bf55a2fe06b67ffffffffffffffff16815260200167088b4886866b72eb67ffffffffffffffff168152602001670f0bcbf20c80a15c67ffffffffffffffff16815260200167f0b955932390facc67ffffffffffffffff16815260200167707ed93f036ec2b167ffffffffffffffff16815260200167a2722c0e5f2de5ba67ffffffffffffffff168152506003906020620003449291906200040e565b503480156200035257600080fd5b506040516200107e3803806200107e833981810160405281019062000378919062000523565b6002548110620003bf576040517f08c379a0000000000000000000000000000000000000000000000000000000008152600401620003b690620005f1565b60405180910390fd5b80600181905550816000806101000a81548173ffffffffffffffffffffffffffffffffffffffff021916908373ffffffffffffffffffffffffffffffffffffffff160217905550505062000613565b82602081019282156200044c579160200282015b828111156200044b578251829067ffffffffffffffff1690559160200191906001019062000422565b5b5090506200045b91906200045f565b5090565b5b808211156200047a57600081600090555060010162000460565b5090565b600080fd5b600073ffffffffffffffffffffffffffffffffffffffff82169050919050565b6000620004b08262000483565b9050919050565b620004c281620004a3565b8114620004ce57600080fd5b50565b600081519050620004e281620004b7565b92915050565b6000819050919050565b620004fd81620004e8565b81146200050957600080fd5b50565b6000815190506200051d81620004f2565b92915050565b600080604083850312156200053d576200053c6200047e565b5b60006200054d85828601620004d1565b925050602062000560858286016200050c565b9150509250929050565b600082825260208201905092915050565b7f416e6f6e4161646861617256657269666965723a2067726f7570206964206d7560008201527f7374206265203c20534e41524b5f5343414c41525f4649454c44000000000000602082015250565b6000620005d9603a836200056a565b9150620005e6826200057b565b604082019050919050565b600060208201905081810360008301526200060c81620005ca565b9050919050565b610a5b80620006236000396000f3fe608060405234801561001057600080fd5b50600436106100575760003560e01c80630c6bcd541461005c57806325c2cd121461008c578063663ea2e2146100aa57806380afdea8146100c85780638525a61d146100e6575b600080fd5b6100766004803603810190610071919061046d565b610116565b60405161008391906104a9565b60405180910390f35b610094610131565b6040516100a191906104a9565b60405180910390f35b6100b2610137565b6040516100bf9190610505565b60405180910390f35b6100d061015b565b6040516100dd91906104a9565b60405180910390f35b61010060048036038101906100fb919061058b565b610161565b60405161010d919061060f565b60405180910390f35b6003816020811061012657600080fd5b016000915090505481565b60025481565b60008054906101000a900473ffffffffffffffffffffffffffffffffffffffff1681565b60015481565b600060015482600160226101759190610659565b602281106101865761018561068d565b5b6020020135146101cb576040517f08c379a00000000000000000000000000000000000000000000000000000000081526004016101c29061073f565b60405180910390fd5b600061020f836022806020026040519081016040528092919082602260200280828437600081840152601f19601f820116905080830192505050505050600161030b565b90506001151561021e826103c7565b151514610260576040517f08c379a0000000000000000000000000000000000000000000000000000000008152600401610257906107d1565b60405180910390fd5b60008054906101000a900473ffffffffffffffffffffffffffffffffffffffff1673ffffffffffffffffffffffffffffffffffffffff16638525a61d878787876040518563ffffffff1660e01b81526004016102bf94939291906108da565b602060405180830381865afa1580156102dc573d6000803e3d6000fd5b505050506040513d601f19601f82011682018060405250810190610300919061094d565b915050949350505050565b60606000602067ffffffffffffffff81111561032a5761032961097a565b5b6040519080825280602002602001820160405280156103585781602001602082028036833780820191505090505b50905060005b60208110156103bc5784818561037491906109a9565b602281106103855761038461068d565b5b602002015182828151811061039d5761039c61068d565b5b60200260200101818152505080806103b4906109dd565b91505061035e565b508091505092915050565b6000806001905060005b602081101561042857600381602081106103ee576103ed61068d565b5b01548482815181106104035761040261068d565b5b60200260200101511461041557600091505b8080610420906109dd565b9150506103d1565b5080915050919050565b600080fd5b6000819050919050565b61044a81610437565b811461045557600080fd5b50565b60008135905061046781610441565b92915050565b60006020828403121561048357610482610432565b5b600061049184828501610458565b91505092915050565b6104a381610437565b82525050565b60006020820190506104be600083018461049a565b92915050565b600073ffffffffffffffffffffffffffffffffffffffff82169050919050565b60006104ef826104c4565b9050919050565b6104ff816104e4565b82525050565b600060208201905061051a60008301846104f6565b92915050565b600080fd5b60008190508260206002028201111561054157610540610520565b5b92915050565b60008190508260406002028201111561056357610562610520565b5b92915050565b60008190508260206022028201111561058557610584610520565b5b92915050565b60008060008061054085870312156105a6576105a5610432565b5b60006105b487828801610525565b94505060406105c587828801610547565b93505060c06105d687828801610525565b9250506101006105e887828801610569565b91505092959194509250565b60008115159050919050565b610609816105f4565b82525050565b60006020820190506106246000830184610600565b92915050565b7f4e487b7100000000000000000000000000000000000000000000000000000000600052601160045260246000fd5b600061066482610437565b915061066f83610437565b92508282039050818111156106875761068661062a565b5b92915050565b7f4e487b7100000000000000000000000000000000000000000000000000000000600052603260045260246000fd5b600082825260208201905092915050565b7f416e6f6e4161646861617256657269666965723a2077726f6e6720617070204960008201527f4400000000000000000000000000000000000000000000000000000000000000602082015250565b60006107296021836106bc565b9150610734826106cd565b604082019050919050565b600060208201905081810360008301526107588161071c565b9050919050565b7f416e6f6e4161646861617256657269666965723a2077726f6e6720697373756560008201527f72207075626c6963206b65790000000000000000000000000000000000000000602082015250565b60006107bb602c836106bc565b91506107c68261075f565b604082019050919050565b600060208201905081810360008301526107ea816107ae565b9050919050565b82818337505050565b610806604083836107f1565b5050565b600060029050919050565b600081905092915050565b6000819050919050565b610836604083836107f1565b5050565b6000610846838361082a565b60408301905092915050565b600082905092915050565b6000604082019050919050565b6108738161080a565b61087d8184610815565b925061088882610820565b8060005b838110156108c15761089e8284610852565b6108a8878261083a565b96506108b38361085d565b92505060018101905061088c565b505050505050565b6108d661044083836107f1565b5050565b6000610540820190506108f060008301876107fa565b6108fd604083018661086a565b61090a60c08301856107fa565b6109186101008301846108c9565b95945050505050565b61092a816105f4565b811461093557600080fd5b50565b60008151905061094781610921565b92915050565b60006020828403121561096357610962610432565b5b600061097184828501610938565b91505092915050565b7f4e487b7100000000000000000000000000000000000000000000000000000000600052604160045260246000fd5b60006109b482610437565b91506109bf83610437565b92508282019050808211156109d7576109d661062a565b5b92915050565b60006109e882610437565b91507fffffffffffffffffffffffffffffffffffffffffffffffffffffffffffffffff8203610a1a57610a1961062a565b5b60018201905091905056fea2646970667358221220525298b6eded5d907469b8dcae9e70fb70ef3d1a39e18edb1861321502f02fd964736f6c63430008130033",
  "linkReferences": {},
  "deployedLinkReferences": {}
}