{"anon-aadhaar-contracts/contracts/Verifier.sol":{"Verifier":{"abi":[{"inputs":[{"internalType":"uint256[2]","name":"_pA","type":"uint256[2]"},{"internalType":"uint256[2][2]","name":"_pB","type":"uint256[2][2]"},{"internalType":"uint256[2]","name":"_pC","type":"uint256[2]"},{"internalType":"uint256[34]","name":"_pubSignals","type":"uint256[34]"}],"name":"verifyProof","outputs":[{"internalType":"bool","name":"","type":"bool"}],"stateMutability":"view","type":"function"}],"evm":{"bytecode":{"linkReferences":{},"object":"608060405234801561001057600080fd5b5061123f806100206000396000f3fe608060405234801561001057600080fd5b506004361061002b5760003560e01c80638525a61d14610030575b600080fd5b61004a6004803603810190610045919061116a565b610060565b60405161005791906111ee565b60405180910390f35b6000610ef6565b7f30644e72e131a029b85045b68181585d97816a916871ca8d3c208c16d87cfd478110610098576000805260206000f35b50565b600060405183815284602082015285604082015260408160608360076107d05a03fa9150816100ce576000805260206000f35b825160408201526020830151606082015260408360808360066107d05a03fa9150816100fe576000805260206000f35b505050505050565b600060808601600087017f0cbcf12da1be9787f46cab65140287e67ef9cfd0275e6b3becc41a52728028f081527f021315f7d802b02b2e0036c3547c95fe69602634247edc3d701c783cea64157260208201526101a960008801357f2ab2f82a2bb19a2d256730a3ed172c4289b0ec01c0942bbdb7a5e7ece6dbfb257f13a67a7c4b8264be108aded50091a12e70003ad31663d5f773275660ff5ad0978461009b565b6101f960208801357f1fa2abd3ae7a610932bb92914292be79fcc66c8b06fb2ef4dbb97146415a0c1d7f128ab70fb20604f6dd696ee65a1710cee0ff887e1494242b55c74799fb44bfcb8461009b565b61024960408801357f2cbf7596c2235dce95d430b11f2503e0208505790f87f2585544282c6e396a077f0f0f142ff0f0ce706c148d710fb45a9d24a0f3bc1c02d4cbdef3fbe83cfc8b4a8461009b565b61029960608801357f1d6855ab00a7b22338c0abb9f639ffc6818ada14542c15eb81722afe6fd43bc57f08b309aa34cd399e1ea46f99196b07582b64c9f99dfe2904c0d300229aa48ed28461009b565b6102e860808801357f135d38b4743a17ce55a8cd2c5b94c99193909a59d937809c8e7ebf575762721a7e23923e7ed54857a6e50d10d1cad2e724e9264799bc8f8492828e74527a70138461009b565b61033860a08801357f145991e5ff27c73fa0c66a55a3bea358dc93c5bced4dd45362ded914b4e7d4f67f0a49ca95b71d32b811bc7722f7b112ef97a4b38b083a02ac617be62c8a502c2a8461009b565b61038860c08801357f145e0a1cf3455ab359ac9477a32227a8850f4659716bdc65d3b39f80408b23777f26554998e183c8f514c80d50c09e6e59c77a6ee8d43ceb33ca2440aabd29440c8461009b565b6103d860e08801357f2151e20fbefe7570597616a50d40710563965a9a974a2869f09e74dffc0998d27f1efc166ecd55bcae6091e4c1f78859aebbbdfaef21b2bdd039878437a45a36f78461009b565b6104296101008801357f0710ab81b9e92e264fbed961c377e42c9135a2bfb842adf7052c41e4b923cf387f06da1c7a0aef225cd285484e957c17eab960fa9b1de2fed9f3eda251fe1a60bd8461009b565b61047a6101208801357f0923243963523cb09a768d59ab7001cece6cf6ad112cd1797752aa00b455b5107f1871a639647462b5ae57ffb8a24876e6f4d0fc130003e4710e3b63de8c6af7598461009b565b6104cb6101408801357f29a1f84d1bd371806d2b54fd9028ab481d4faff565c20b7b008f356f522662e07f0645a5ecf50638f17e676f556031fc11d691393636db91605893b32c1e7c3f628461009b565b61051c6101608801357f1539f25c36296e082069ae50a8ac9857ee87f4917bd504a103cb06f3356557687f032013875dc97564c56450499b7bafcfd01540196c8639a85702f2a51360b8c88461009b565b61056d6101808801357f2146087bbc26c535e19597ce205a39fac2ce19590eb2961fd3ac0c462855f3c37f25c657d860736fdee5b0a4173b44e4fcdecdffce9422f714e39e9db32927d1868461009b565b6105be6101a08801357f07cefc6ac5eaf6b85fd3896916b0dbbb9f1f7c7c0fd791a34698c132bf685abb7f0eff9983dcfcd42b73568cecb9830d03f25545cce921ef1b272ccedce2c435a28461009b565b61060f6101c08801357f2af62f27556ad6dd11c1c7ddd6551415425d9e7028d0f92ff9f3e59717b49df67f221bc6c9b25e6b8b33a9afa4ec94a5de51d5bc865aca7b0364938063b01b649e8461009b565b6106606101e08801357f046a14665e35d7675e06c77621e91935193ec8c2c63ab1f1c8168b7049c9dbfe7f0370398f5a589e7fdd00b564ca5c884bfad324c505812104514f2bcc11b182258461009b565b6106b16102008801357f09dc720f2b27c17fd53463f4c5884ac979e96395a81ec39a5159c118876011a87f01b0eed164f002ba3bfb32ca160e837223ea271f4ddfd3c974e0d7bf4e22357a8461009b565b6107026102208801357f211500fc7121aab601a38a0acfa76c575b7956d6dcfabb1f7995c967861b730b7f09e02ff83f9835895681f1d31ee3ffba73cd8eaf63c30609014953119712f32b8461009b565b6107536102408801357f2376257d004223af0e6489d25e64166da9fffb80b3cb635a88407122d7d910f67f1877df48e29c674c8352ac5c6350547bdf796d74cd28f83c1df9505e71371ff18461009b565b6107a46102608801357f279072ed3ae698f4fe0d1549753c89984edea5bdef973225a788d9f6d7a60c407f2eadc375d9b59ce74fa3fbbe813e8acad39e0fe067fa87251e0022701f0faa368461009b565b6107f56102808801357f053e0195aa3cf4d350c69012964a8b197a5f5f6d9978d29cbcf719cc7b44c0377f2d14de4d604f21529b321dac551d5d830e450a30980f0523e1a9b2a1ca2111048461009b565b6108466102a08801357f16e184fa4b95ea348a9bc199697704513bc37ebab6757c82dfaab33b3e9b6be17f0141a51cf075185b098f6d0a3bc54f1c1cd7f9804919623b0e653cc2ca4c5d828461009b565b6108976102c08801357f1a7c9e749c267485f1fbe7472d942e525093a8e340fc716204689c989aa5bb907f0bc8fb550855dac40e96adfeba50fddae6df672e04f173af5dd7aaa1feae0cdb8461009b565b6108e86102e08801357f2fe270d51f667c9c2cb2eeccdc486952545015b7db092ee7fd2610add80d11597f26992dcab5c11075e3c272428c07aef6095ce2e515fc09c8dd197fdc1e5cc2af8461009b565b6109396103008801357f02b9678f1d1f83326586bdf8c3a712d99c61e5ca9b0e1615bbe2e39a93936c9f7f110b5b0f8cc6af959d94a98d251803717fb4738114a23681903d5397ac67a6178461009b565b61098a6103208801357f0713ef679076a73b212295e52474264b52ebe5d8a15492a4eaa0764c37aec1f97f1522d4614a008f6ac9edaff99da745eaafe9e7134fa300dc4bd387e2fc9982778461009b565b6109db6103408801357f0d410462cecfeda5bbcf25f5443db7348211ac571bc172e25a0f6a3bd9fff2327f093231d1491f79adc648cfe560a5f694ede1298f99edf8519ccfeaa46882149a8461009b565b610a2c6103608801357f1d921932b532a9cd80b9f6ca27602bb1c5a76be5256228ee29882a9c37b5c7137f13a33650ab5ef25d7f48a1e353cfe078288e17e87d0e6553bede4016a13bd6c88461009b565b610a7d6103808801357f1306012c596928b5f336b7df9b30f987e22365754b8822a49e1e4658a108dbfc7f052740dcbbaba4e97a2bb22a883de694170c853e12a5ff88a6a89c15cfc0c6768461009b565b610ace6103a08801357f054c40dea3c7a1038a0e04b38b55c1f0eb9f3fa11678ab818c3ee197c6133af37f2755e44715a61e69f371f03f27ce9b1d24347650e3e182788241e2434ca84a5b8461009b565b610b1f6103c08801357f2069b2f1c70c7bdb78a7d50cc8b04a48af4634bcacab8041ae15dc561b8a03797f1c13bf05fd1f42e03a35f699e8c620448b183be227f0d5af897796b6261c7b258461009b565b610b706103e08801357f208fc9880aa2d2ee157803f65c5281ac1a60a0d25bd99bb0a734f92ee64be7e87f0591dd47d001f2af65ce0650aa7c947239c751d73eaa6516ab49562804fff88e8461009b565b610bc16104008801357f11d9f2e283049f7422ef1924d574de3f71e24fb3fc5fde612ed9f1e43ab0bf147f20413e47b2373cf26c99dd47d3d6bcd8f6c2d43553bf2ae6b0260e5ff9d42cf98461009b565b610c126104208801357f2990a1a7c720b03282f52d6dec9206be516df7d05e11ce9292556dd5969bc0537f129a77fcb078b26969d29ea3128f4cd8eda648f3eea42f8805dd593b1ee70f8f8461009b565b833582527f30644e72e131a029b85045b68181585d97816a916871ca8d3c208c16d87cfd4760208501357f30644e72e131a029b85045b68181585d97816a916871ca8d3c208c16d87cfd4703066020830152843560408301526020850135606083015260408501356080830152606085013560a08301527f2d4d9aa7e302d9df41749d5507949d05dbea33fbb16c643b22f599a2be6df2e260c08301527f14bedd503c37ceb061d8ec60209fe345ce89830a19230301f076caff004d192660e08301527f0967032fcbf776d1afc985f88877f182d38480a653f2decaa9794cbc3bf3060c6101008301527f0e187847ad4c798374d0d6732bf501847dd68bc0e071241e0213bc7fc13db7ab6101208301527f304cfbd1e08a704a99f5e847d93f8c3caafddec46b7a0d379da69a4d112346a76101408301527f1739c1b1a457a8c7313123d24d2f9192f896b7c63eea05a9d57f06547ad0cec8610160830152600088015161018083015260206000018801516101a08301527f198e9393920d483a7260bfb731fb5d25f1aa493335a9e71297e485b7aef312c26101c08301527f1800deef121f1e76426a00665e5c4479674322d4f75edadd46debd5cd992f6ed6101e08301527f090689d0585ff075ec9e99ad690c3395bc4b313370b38ef355acdadcd122975b6102008301527f12c85ea5db8c6deb4aab71808dcb408fe3d1e7690c43d37b4ce6cc0166fa7daa610220830152853561024083015260208601356102608301527f0b58532df5ac163ae9f2cb118991860b10db0c15c2871336106816795cbf295d6102808301527f14053833d28897afd8b3da1a7d448e85be7fc52bcc6b10c8edb623bff09fd9c46102a08301527f19afcdb23b984735eff63fadc76d03629d9be6ff2e8a371c74a1e6564d2010f06102c08301527f2b8a715912638ad2404f49106b5266d4a0c5d5e8a88aaf75da9c18bd67943c2c6102e08301526020826103008460086107d05a03fa82518116935050505095945050505050565b6040516103808101604052610f0e6000840135610067565b610f1b6020840135610067565b610f286040840135610067565b610f356060840135610067565b610f426080840135610067565b610f4f60a0840135610067565b610f5c60c0840135610067565b610f6960e0840135610067565b610f77610100840135610067565b610f85610120840135610067565b610f93610140840135610067565b610fa1610160840135610067565b610faf610180840135610067565b610fbd6101a0840135610067565b610fcb6101c0840135610067565b610fd96101e0840135610067565b610fe7610200840135610067565b610ff5610220840135610067565b611003610240840135610067565b611011610260840135610067565b61101f610280840135610067565b61102d6102a0840135610067565b61103b6102c0840135610067565b6110496102e0840135610067565b611057610300840135610067565b611065610320840135610067565b611073610340840135610067565b611081610360840135610067565b61108f610380840135610067565b61109d6103a0840135610067565b6110ab6103c0840135610067565b6110b96103e0840135610067565b6110c7610400840135610067565b6110d5610420840135610067565b6110e3610440840135610067565b6110f0818486888a610106565b8060005260206000f35b600080fd5b600080fd5b6000819050826020600202820111156111205761111f6110ff565b5b92915050565b600081905082604060020282011115611142576111416110ff565b5b92915050565b600081905082602060220282011115611164576111636110ff565b5b92915050565b6000806000806105408587031215611185576111846110fa565b5b600061119387828801611104565b94505060406111a487828801611126565b93505060c06111b587828801611104565b9250506101006111c787828801611148565b91505092959194509250565b60008115159050919050565b6111e8816111d3565b82525050565b600060208201905061120360008301846111df565b9291505056fea2646970667358221220fbbbfc7c24e6eb09fd727bba756c30345acadbeb8b328b671d3e69fe6cc71aae64736f6c63430008130033","opcodes":"PUSH1 0x80 PUSH1 0x40 MSTORE CALLVALUE DUP1 ISZERO PUSH2 0x10 JUMPI PUSH1 0x0 DUP1 REVERT JUMPDEST POP PUSH2 0x123F DUP1 PUSH2 0x20 PUSH1 0x0 CODECOPY PUSH1 0x0 RETURN INVALID PUSH1 0x80 PUSH1 0x40 MSTORE CALLVALUE DUP1 ISZERO PUSH2 0x10 JUMPI PUSH1 0x0 DUP1 REVERT JUMPDEST POP PUSH1 0x4 CALLDATASIZE LT PUSH2 0x2B JUMPI PUSH1 0x0 CALLDATALOAD PUSH1 0xE0 SHR DUP1 PUSH4 0x8525A61D EQ PUSH2 0x30 JUMPI JUMPDEST PUSH1 0x0 DUP1 REVERT JUMPDEST PUSH2 0x4A PUSH1 0x4 DUP1 CALLDATASIZE SUB DUP2 ADD SWAP1 PUSH2 0x45 SWAP2 SWAP1 PUSH2 0x116A JUMP JUMPDEST PUSH2 0x60 JUMP JUMPDEST PUSH1 0x40 MLOAD PUSH2 0x57 SWAP2 SWAP1 PUSH2 0x11EE JUMP JUMPDEST PUSH1 0x40 MLOAD DUP1 SWAP2 SUB SWAP1 RETURN JUMPDEST PUSH1 0x0 PUSH2 0xEF6 JUMP JUMPDEST PUSH32 0x30644E72E131A029B85045B68181585D97816A916871CA8D3C208C16D87CFD47 DUP2 LT PUSH2 0x98 JUMPI PUSH1 0x0 DUP1 MSTORE PUSH1 0x20 PUSH1 0x0 RETURN JUMPDEST POP JUMP JUMPDEST PUSH1 0x0 PUSH1 0x40 MLOAD DUP4 DUP2 MSTORE DUP5 PUSH1 0x20 DUP3 ADD MSTORE DUP6 PUSH1 0x40 DUP3 ADD MSTORE PUSH1 0x40 DUP2 PUSH1 0x60 DUP4 PUSH1 0x7 PUSH2 0x7D0 GAS SUB STATICCALL SWAP2 POP DUP2 PUSH2 0xCE JUMPI PUSH1 0x0 DUP1 MSTORE PUSH1 0x20 PUSH1 0x0 RETURN JUMPDEST DUP3 MLOAD PUSH1 0x40 DUP3 ADD MSTORE PUSH1 0x20 DUP4 ADD MLOAD PUSH1 0x60 DUP3 ADD MSTORE PUSH1 0x40 DUP4 PUSH1 0x80 DUP4 PUSH1 0x6 PUSH2 0x7D0 GAS SUB STATICCALL SWAP2 POP DUP2 PUSH2 0xFE JUMPI PUSH1 0x0 DUP1 MSTORE PUSH1 0x20 PUSH1 0x0 RETURN JUMPDEST POP POP POP POP POP POP JUMP JUMPDEST PUSH1 0x0 PUSH1 0x80 DUP7 ADD PUSH1 0x0 DUP8 ADD PUSH32 0xCBCF12DA1BE9787F46CAB65140287E67EF9CFD0275E6B3BECC41A52728028F0 DUP2 MSTORE PUSH32 0x21315F7D802B02B2E0036C3547C95FE69602634247EDC3D701C783CEA641572 PUSH1 0x20 DUP3 ADD MSTORE PUSH2 0x1A9 PUSH1 0x0 DUP9 ADD CALLDATALOAD PUSH32 0x2AB2F82A2BB19A2D256730A3ED172C4289B0EC01C0942BBDB7A5E7ECE6DBFB25 PUSH32 0x13A67A7C4B8264BE108ADED50091A12E70003AD31663D5F773275660FF5AD097 DUP5 PUSH2 0x9B JUMP JUMPDEST PUSH2 0x1F9 PUSH1 0x20 DUP9 ADD CALLDATALOAD PUSH32 0x1FA2ABD3AE7A610932BB92914292BE79FCC66C8B06FB2EF4DBB97146415A0C1D PUSH32 0x128AB70FB20604F6DD696EE65A1710CEE0FF887E1494242B55C74799FB44BFCB DUP5 PUSH2 0x9B JUMP JUMPDEST PUSH2 0x249 PUSH1 0x40 DUP9 ADD CALLDATALOAD PUSH32 0x2CBF7596C2235DCE95D430B11F2503E0208505790F87F2585544282C6E396A07 PUSH32 0xF0F142FF0F0CE706C148D710FB45A9D24A0F3BC1C02D4CBDEF3FBE83CFC8B4A DUP5 PUSH2 0x9B JUMP JUMPDEST PUSH2 0x299 PUSH1 0x60 DUP9 ADD CALLDATALOAD PUSH32 0x1D6855AB00A7B22338C0ABB9F639FFC6818ADA14542C15EB81722AFE6FD43BC5 PUSH32 0x8B309AA34CD399E1EA46F99196B07582B64C9F99DFE2904C0D300229AA48ED2 DUP5 PUSH2 0x9B JUMP JUMPDEST PUSH2 0x2E8 PUSH1 0x80 DUP9 ADD CALLDATALOAD PUSH32 0x135D38B4743A17CE55A8CD2C5B94C99193909A59D937809C8E7EBF575762721A PUSH31 0x23923E7ED54857A6E50D10D1CAD2E724E9264799BC8F8492828E74527A7013 DUP5 PUSH2 0x9B JUMP JUMPDEST PUSH2 0x338 PUSH1 0xA0 DUP9 ADD CALLDATALOAD PUSH32 0x145991E5FF27C73FA0C66A55A3BEA358DC93C5BCED4DD45362DED914B4E7D4F6 PUSH32 0xA49CA95B71D32B811BC7722F7B112EF97A4B38B083A02AC617BE62C8A502C2A DUP5 PUSH2 0x9B JUMP JUMPDEST PUSH2 0x388 PUSH1 0xC0 DUP9 ADD CALLDATALOAD PUSH32 0x145E0A1CF3455AB359AC9477A32227A8850F4659716BDC65D3B39F80408B2377 PUSH32 0x26554998E183C8F514C80D50C09E6E59C77A6EE8D43CEB33CA2440AABD29440C DUP5 PUSH2 0x9B JUMP JUMPDEST PUSH2 0x3D8 PUSH1 0xE0 DUP9 ADD CALLDATALOAD PUSH32 0x2151E20FBEFE7570597616A50D40710563965A9A974A2869F09E74DFFC0998D2 PUSH32 0x1EFC166ECD55BCAE6091E4C1F78859AEBBBDFAEF21B2BDD039878437A45A36F7 DUP5 PUSH2 0x9B JUMP JUMPDEST PUSH2 0x429 PUSH2 0x100 DUP9 ADD CALLDATALOAD PUSH32 0x710AB81B9E92E264FBED961C377E42C9135A2BFB842ADF7052C41E4B923CF38 PUSH32 0x6DA1C7A0AEF225CD285484E957C17EAB960FA9B1DE2FED9F3EDA251FE1A60BD DUP5 PUSH2 0x9B JUMP JUMPDEST PUSH2 0x47A PUSH2 0x120 DUP9 ADD CALLDATALOAD PUSH32 0x923243963523CB09A768D59AB7001CECE6CF6AD112CD1797752AA00B455B510 PUSH32 0x1871A639647462B5AE57FFB8A24876E6F4D0FC130003E4710E3B63DE8C6AF759 DUP5 PUSH2 0x9B JUMP JUMPDEST PUSH2 0x4CB PUSH2 0x140 DUP9 ADD CALLDATALOAD PUSH32 0x29A1F84D1BD371806D2B54FD9028AB481D4FAFF565C20B7B008F356F522662E0 PUSH32 0x645A5ECF50638F17E676F556031FC11D691393636DB91605893B32C1E7C3F62 DUP5 PUSH2 0x9B JUMP JUMPDEST PUSH2 0x51C PUSH2 0x160 DUP9 ADD CALLDATALOAD PUSH32 0x1539F25C36296E082069AE50A8AC9857EE87F4917BD504A103CB06F335655768 PUSH32 0x32013875DC97564C56450499B7BAFCFD01540196C8639A85702F2A51360B8C8 DUP5 PUSH2 0x9B JUMP JUMPDEST PUSH2 0x56D PUSH2 0x180 DUP9 ADD CALLDATALOAD PUSH32 0x2146087BBC26C535E19597CE205A39FAC2CE19590EB2961FD3AC0C462855F3C3 PUSH32 0x25C657D860736FDEE5B0A4173B44E4FCDECDFFCE9422F714E39E9DB32927D186 DUP5 PUSH2 0x9B JUMP JUMPDEST PUSH2 0x5BE PUSH2 0x1A0 DUP9 ADD CALLDATALOAD PUSH32 0x7CEFC6AC5EAF6B85FD3896916B0DBBB9F1F7C7C0FD791A34698C132BF685ABB PUSH32 0xEFF9983DCFCD42B73568CECB9830D03F25545CCE921EF1B272CCEDCE2C435A2 DUP5 PUSH2 0x9B JUMP JUMPDEST PUSH2 0x60F PUSH2 0x1C0 DUP9 ADD CALLDATALOAD PUSH32 0x2AF62F27556AD6DD11C1C7DDD6551415425D9E7028D0F92FF9F3E59717B49DF6 PUSH32 0x221BC6C9B25E6B8B33A9AFA4EC94A5DE51D5BC865ACA7B0364938063B01B649E DUP5 PUSH2 0x9B JUMP JUMPDEST PUSH2 0x660 PUSH2 0x1E0 DUP9 ADD CALLDATALOAD PUSH32 0x46A14665E35D7675E06C77621E91935193EC8C2C63AB1F1C8168B7049C9DBFE PUSH32 0x370398F5A589E7FDD00B564CA5C884BFAD324C505812104514F2BCC11B18225 DUP5 PUSH2 0x9B JUMP JUMPDEST PUSH2 0x6B1 PUSH2 0x200 DUP9 ADD CALLDATALOAD PUSH32 0x9DC720F2B27C17FD53463F4C5884AC979E96395A81EC39A5159C118876011A8 PUSH32 0x1B0EED164F002BA3BFB32CA160E837223EA271F4DDFD3C974E0D7BF4E22357A DUP5 PUSH2 0x9B JUMP JUMPDEST PUSH2 0x702 PUSH2 0x220 DUP9 ADD CALLDATALOAD PUSH32 0x211500FC7121AAB601A38A0ACFA76C575B7956D6DCFABB1F7995C967861B730B PUSH32 0x9E02FF83F9835895681F1D31EE3FFBA73CD8EAF63C30609014953119712F32B DUP5 PUSH2 0x9B JUMP JUMPDEST PUSH2 0x753 PUSH2 0x240 DUP9 ADD CALLDATALOAD PUSH32 0x2376257D004223AF0E6489D25E64166DA9FFFB80B3CB635A88407122D7D910F6 PUSH32 0x1877DF48E29C674C8352AC5C6350547BDF796D74CD28F83C1DF9505E71371FF1 DUP5 PUSH2 0x9B JUMP JUMPDEST PUSH2 0x7A4 PUSH2 0x260 DUP9 ADD CALLDATALOAD PUSH32 0x279072ED3AE698F4FE0D1549753C89984EDEA5BDEF973225A788D9F6D7A60C40 PUSH32 0x2EADC375D9B59CE74FA3FBBE813E8ACAD39E0FE067FA87251E0022701F0FAA36 DUP5 PUSH2 0x9B JUMP JUMPDEST PUSH2 0x7F5 PUSH2 0x280 DUP9 ADD CALLDATALOAD PUSH32 0x53E0195AA3CF4D350C69012964A8B197A5F5F6D9978D29CBCF719CC7B44C037 PUSH32 0x2D14DE4D604F21529B321DAC551D5D830E450A30980F0523E1A9B2A1CA211104 DUP5 PUSH2 0x9B JUMP JUMPDEST PUSH2 0x846 PUSH2 0x2A0 DUP9 ADD CALLDATALOAD PUSH32 0x16E184FA4B95EA348A9BC199697704513BC37EBAB6757C82DFAAB33B3E9B6BE1 PUSH32 0x141A51CF075185B098F6D0A3BC54F1C1CD7F9804919623B0E653CC2CA4C5D82 DUP5 PUSH2 0x9B JUMP JUMPDEST PUSH2 0x897 PUSH2 0x2C0 DUP9 ADD CALLDATALOAD PUSH32 0x1A7C9E749C267485F1FBE7472D942E525093A8E340FC716204689C989AA5BB90 PUSH32 0xBC8FB550855DAC40E96ADFEBA50FDDAE6DF672E04F173AF5DD7AAA1FEAE0CDB DUP5 PUSH2 0x9B JUMP JUMPDEST PUSH2 0x8E8 PUSH2 0x2E0 DUP9 ADD CALLDATALOAD PUSH32 0x2FE270D51F667C9C2CB2EECCDC486952545015B7DB092EE7FD2610ADD80D1159 PUSH32 0x26992DCAB5C11075E3C272428C07AEF6095CE2E515FC09C8DD197FDC1E5CC2AF DUP5 PUSH2 0x9B JUMP JUMPDEST PUSH2 0x939 PUSH2 0x300 DUP9 ADD CALLDATALOAD PUSH32 0x2B9678F1D1F83326586BDF8C3A712D99C61E5CA9B0E1615BBE2E39A93936C9F PUSH32 0x110B5B0F8CC6AF959D94A98D251803717FB4738114A23681903D5397AC67A617 DUP5 PUSH2 0x9B JUMP JUMPDEST PUSH2 0x98A PUSH2 0x320 DUP9 ADD CALLDATALOAD PUSH32 0x713EF679076A73B212295E52474264B52EBE5D8A15492A4EAA0764C37AEC1F9 PUSH32 0x1522D4614A008F6AC9EDAFF99DA745EAAFE9E7134FA300DC4BD387E2FC998277 DUP5 PUSH2 0x9B JUMP JUMPDEST PUSH2 0x9DB PUSH2 0x340 DUP9 ADD CALLDATALOAD PUSH32 0xD410462CECFEDA5BBCF25F5443DB7348211AC571BC172E25A0F6A3BD9FFF232 PUSH32 0x93231D1491F79ADC648CFE560A5F694EDE1298F99EDF8519CCFEAA46882149A DUP5 PUSH2 0x9B JUMP JUMPDEST PUSH2 0xA2C PUSH2 0x360 DUP9 ADD CALLDATALOAD PUSH32 0x1D921932B532A9CD80B9F6CA27602BB1C5A76BE5256228EE29882A9C37B5C713 PUSH32 0x13A33650AB5EF25D7F48A1E353CFE078288E17E87D0E6553BEDE4016A13BD6C8 DUP5 PUSH2 0x9B JUMP JUMPDEST PUSH2 0xA7D PUSH2 0x380 DUP9 ADD CALLDATALOAD PUSH32 0x1306012C596928B5F336B7DF9B30F987E22365754B8822A49E1E4658A108DBFC PUSH32 0x52740DCBBABA4E97A2BB22A883DE694170C853E12A5FF88A6A89C15CFC0C676 DUP5 PUSH2 0x9B JUMP JUMPDEST PUSH2 0xACE PUSH2 0x3A0 DUP9 ADD CALLDATALOAD PUSH32 0x54C40DEA3C7A1038A0E04B38B55C1F0EB9F3FA11678AB818C3EE197C6133AF3 PUSH32 0x2755E44715A61E69F371F03F27CE9B1D24347650E3E182788241E2434CA84A5B DUP5 PUSH2 0x9B JUMP JUMPDEST PUSH2 0xB1F PUSH2 0x3C0 DUP9 ADD CALLDATALOAD PUSH32 0x2069B2F1C70C7BDB78A7D50CC8B04A48AF4634BCACAB8041AE15DC561B8A0379 PUSH32 0x1C13BF05FD1F42E03A35F699E8C620448B183BE227F0D5AF897796B6261C7B25 DUP5 PUSH2 0x9B JUMP JUMPDEST PUSH2 0xB70 PUSH2 0x3E0 DUP9 ADD CALLDATALOAD PUSH32 0x208FC9880AA2D2EE157803F65C5281AC1A60A0D25BD99BB0A734F92EE64BE7E8 PUSH32 0x591DD47D001F2AF65CE0650AA7C947239C751D73EAA6516AB49562804FFF88E DUP5 PUSH2 0x9B JUMP JUMPDEST PUSH2 0xBC1 PUSH2 0x400 DUP9 ADD CALLDATALOAD PUSH32 0x11D9F2E283049F7422EF1924D574DE3F71E24FB3FC5FDE612ED9F1E43AB0BF14 PUSH32 0x20413E47B2373CF26C99DD47D3D6BCD8F6C2D43553BF2AE6B0260E5FF9D42CF9 DUP5 PUSH2 0x9B JUMP JUMPDEST PUSH2 0xC12 PUSH2 0x420 DUP9 ADD CALLDATALOAD PUSH32 0x2990A1A7C720B03282F52D6DEC9206BE516DF7D05E11CE9292556DD5969BC053 PUSH32 0x129A77FCB078B26969D29EA3128F4CD8EDA648F3EEA42F8805DD593B1EE70F8F DUP5 PUSH2 0x9B JUMP JUMPDEST DUP4 CALLDATALOAD DUP3 MSTORE PUSH32 0x30644E72E131A029B85045B68181585D97816A916871CA8D3C208C16D87CFD47 PUSH1 0x20 DUP6 ADD CALLDATALOAD PUSH32 0x30644E72E131A029B85045B68181585D97816A916871CA8D3C208C16D87CFD47 SUB MOD PUSH1 0x20 DUP4 ADD MSTORE DUP5 CALLDATALOAD PUSH1 0x40 DUP4 ADD MSTORE PUSH1 0x20 DUP6 ADD CALLDATALOAD PUSH1 0x60 DUP4 ADD MSTORE PUSH1 0x40 DUP6 ADD CALLDATALOAD PUSH1 0x80 DUP4 ADD MSTORE PUSH1 0x60 DUP6 ADD CALLDATALOAD PUSH1 0xA0 DUP4 ADD MSTORE PUSH32 0x2D4D9AA7E302D9DF41749D5507949D05DBEA33FBB16C643B22F599A2BE6DF2E2 PUSH1 0xC0 DUP4 ADD MSTORE PUSH32 0x14BEDD503C37CEB061D8EC60209FE345CE89830A19230301F076CAFF004D1926 PUSH1 0xE0 DUP4 ADD MSTORE PUSH32 0x967032FCBF776D1AFC985F88877F182D38480A653F2DECAA9794CBC3BF3060C PUSH2 0x100 DUP4 ADD MSTORE PUSH32 0xE187847AD4C798374D0D6732BF501847DD68BC0E071241E0213BC7FC13DB7AB PUSH2 0x120 DUP4 ADD MSTORE PUSH32 0x304CFBD1E08A704A99F5E847D93F8C3CAAFDDEC46B7A0D379DA69A4D112346A7 PUSH2 0x140 DUP4 ADD MSTORE PUSH32 0x1739C1B1A457A8C7313123D24D2F9192F896B7C63EEA05A9D57F06547AD0CEC8 PUSH2 0x160 DUP4 ADD MSTORE PUSH1 0x0 DUP9 ADD MLOAD PUSH2 0x180 DUP4 ADD MSTORE PUSH1 0x20 PUSH1 0x0 ADD DUP9 ADD MLOAD PUSH2 0x1A0 DUP4 ADD MSTORE PUSH32 0x198E9393920D483A7260BFB731FB5D25F1AA493335A9E71297E485B7AEF312C2 PUSH2 0x1C0 DUP4 ADD MSTORE PUSH32 0x1800DEEF121F1E76426A00665E5C4479674322D4F75EDADD46DEBD5CD992F6ED PUSH2 0x1E0 DUP4 ADD MSTORE PUSH32 0x90689D0585FF075EC9E99AD690C3395BC4B313370B38EF355ACDADCD122975B PUSH2 0x200 DUP4 ADD MSTORE PUSH32 0x12C85EA5DB8C6DEB4AAB71808DCB408FE3D1E7690C43D37B4CE6CC0166FA7DAA PUSH2 0x220 DUP4 ADD MSTORE DUP6 CALLDATALOAD PUSH2 0x240 DUP4 ADD MSTORE PUSH1 0x20 DUP7 ADD CALLDATALOAD PUSH2 0x260 DUP4 ADD MSTORE PUSH32 0xB58532DF5AC163AE9F2CB118991860B10DB0C15C2871336106816795CBF295D PUSH2 0x280 DUP4 ADD MSTORE PUSH32 0x14053833D28897AFD8B3DA1A7D448E85BE7FC52BCC6B10C8EDB623BFF09FD9C4 PUSH2 0x2A0 DUP4 ADD MSTORE PUSH32 0x19AFCDB23B984735EFF63FADC76D03629D9BE6FF2E8A371C74A1E6564D2010F0 PUSH2 0x2C0 DUP4 ADD MSTORE PUSH32 0x2B8A715912638AD2404F49106B5266D4A0C5D5E8A88AAF75DA9C18BD67943C2C PUSH2 0x2E0 DUP4 ADD MSTORE PUSH1 0x20 DUP3 PUSH2 0x300 DUP5 PUSH1 0x8 PUSH2 0x7D0 GAS SUB STATICCALL DUP3 MLOAD DUP2 AND SWAP4 POP POP POP POP SWAP6 SWAP5 POP POP POP POP POP JUMP JUMPDEST PUSH1 0x40 MLOAD PUSH2 0x380 DUP2 ADD PUSH1 0x40 MSTORE PUSH2 0xF0E PUSH1 0x0 DUP5 ADD CALLDATALOAD PUSH2 0x67 JUMP JUMPDEST PUSH2 0xF1B PUSH1 0x20 DUP5 ADD CALLDATALOAD PUSH2 0x67 JUMP JUMPDEST PUSH2 0xF28 PUSH1 0x40 DUP5 ADD CALLDATALOAD PUSH2 0x67 JUMP JUMPDEST PUSH2 0xF35 PUSH1 0x60 DUP5 ADD CALLDATALOAD PUSH2 0x67 JUMP JUMPDEST PUSH2 0xF42 PUSH1 0x80 DUP5 ADD CALLDATALOAD PUSH2 0x67 JUMP JUMPDEST PUSH2 0xF4F PUSH1 0xA0 DUP5 ADD CALLDATALOAD PUSH2 0x67 JUMP JUMPDEST PUSH2 0xF5C PUSH1 0xC0 DUP5 ADD CALLDATALOAD PUSH2 0x67 JUMP JUMPDEST PUSH2 0xF69 PUSH1 0xE0 DUP5 ADD CALLDATALOAD PUSH2 0x67 JUMP JUMPDEST PUSH2 0xF77 PUSH2 0x100 DUP5 ADD CALLDATALOAD PUSH2 0x67 JUMP JUMPDEST PUSH2 0xF85 PUSH2 0x120 DUP5 ADD CALLDATALOAD PUSH2 0x67 JUMP JUMPDEST PUSH2 0xF93 PUSH2 0x140 DUP5 ADD CALLDATALOAD PUSH2 0x67 JUMP JUMPDEST PUSH2 0xFA1 PUSH2 0x160 DUP5 ADD CALLDATALOAD PUSH2 0x67 JUMP JUMPDEST PUSH2 0xFAF PUSH2 0x180 DUP5 ADD CALLDATALOAD PUSH2 0x67 JUMP JUMPDEST PUSH2 0xFBD PUSH2 0x1A0 DUP5 ADD CALLDATALOAD PUSH2 0x67 JUMP JUMPDEST PUSH2 0xFCB PUSH2 0x1C0 DUP5 ADD CALLDATALOAD PUSH2 0x67 JUMP JUMPDEST PUSH2 0xFD9 PUSH2 0x1E0 DUP5 ADD CALLDATALOAD PUSH2 0x67 JUMP JUMPDEST PUSH2 0xFE7 PUSH2 0x200 DUP5 ADD CALLDATALOAD PUSH2 0x67 JUMP JUMPDEST PUSH2 0xFF5 PUSH2 0x220 DUP5 ADD CALLDATALOAD PUSH2 0x67 JUMP JUMPDEST PUSH2 0x1003 PUSH2 0x240 DUP5 ADD CALLDATALOAD PUSH2 0x67 JUMP JUMPDEST PUSH2 0x1011 PUSH2 0x260 DUP5 ADD CALLDATALOAD PUSH2 0x67 JUMP JUMPDEST PUSH2 0x101F PUSH2 0x280 DUP5 ADD CALLDATALOAD PUSH2 0x67 JUMP JUMPDEST PUSH2 0x102D PUSH2 0x2A0 DUP5 ADD CALLDATALOAD PUSH2 0x67 JUMP JUMPDEST PUSH2 0x103B PUSH2 0x2C0 DUP5 ADD CALLDATALOAD PUSH2 0x67 JUMP JUMPDEST PUSH2 0x1049 PUSH2 0x2E0 DUP5 ADD CALLDATALOAD PUSH2 0x67 JUMP JUMPDEST PUSH2 0x1057 PUSH2 0x300 DUP5 ADD CALLDATALOAD PUSH2 0x67 JUMP JUMPDEST PUSH2 0x1065 PUSH2 0x320 DUP5 ADD CALLDATALOAD PUSH2 0x67 JUMP JUMPDEST PUSH2 0x1073 PUSH2 0x340 DUP5 ADD CALLDATALOAD PUSH2 0x67 JUMP JUMPDEST PUSH2 0x1081 PUSH2 0x360 DUP5 ADD CALLDATALOAD PUSH2 0x67 JUMP JUMPDEST PUSH2 0x108F PUSH2 0x380 DUP5 ADD CALLDATALOAD PUSH2 0x67 JUMP JUMPDEST PUSH2 0x109D PUSH2 0x3A0 DUP5 ADD CALLDATALOAD PUSH2 0x67 JUMP JUMPDEST PUSH2 0x10AB PUSH2 0x3C0 DUP5 ADD CALLDATALOAD PUSH2 0x67 JUMP JUMPDEST PUSH2 0x10B9 PUSH2 0x3E0 DUP5 ADD CALLDATALOAD PUSH2 0x67 JUMP JUMPDEST PUSH2 0x10C7 PUSH2 0x400 DUP5 ADD CALLDATALOAD PUSH2 0x67 JUMP JUMPDEST PUSH2 0x10D5 PUSH2 0x420 DUP5 ADD CALLDATALOAD PUSH2 0x67 JUMP JUMPDEST PUSH2 0x10E3 PUSH2 0x440 DUP5 ADD CALLDATALOAD PUSH2 0x67 JUMP JUMPDEST PUSH2 0x10F0 DUP2 DUP5 DUP7 DUP9 DUP11 PUSH2 0x106 JUMP JUMPDEST DUP1 PUSH1 0x0 MSTORE PUSH1 0x20 PUSH1 0x0 RETURN JUMPDEST PUSH1 0x0 DUP1 REVERT JUMPDEST PUSH1 0x0 DUP1 REVERT JUMPDEST PUSH1 0x0 DUP2 SWAP1 POP DUP3 PUSH1 0x20 PUSH1 0x2 MUL DUP3 ADD GT ISZERO PUSH2 0x1120 JUMPI PUSH2 0x111F PUSH2 0x10FF JUMP JUMPDEST JUMPDEST SWAP3 SWAP2 POP POP JUMP JUMPDEST PUSH1 0x0 DUP2 SWAP1 POP DUP3 PUSH1 0x40 PUSH1 0x2 MUL DUP3 ADD GT ISZERO PUSH2 0x1142 JUMPI PUSH2 0x1141 PUSH2 0x10FF JUMP JUMPDEST JUMPDEST SWAP3 SWAP2 POP POP JUMP JUMPDEST PUSH1 0x0 DUP2 SWAP1 POP DUP3 PUSH1 0x20 PUSH1 0x22 MUL DUP3 ADD GT ISZERO PUSH2 0x1164 JUMPI PUSH2 0x1163 PUSH2 0x10FF JUMP JUMPDEST JUMPDEST SWAP3 SWAP2 POP POP JUMP JUMPDEST PUSH1 0x0 DUP1 PUSH1 0x0 DUP1 PUSH2 0x540 DUP6 DUP8 SUB SLT ISZERO PUSH2 0x1185 JUMPI PUSH2 0x1184 PUSH2 0x10FA JUMP JUMPDEST JUMPDEST PUSH1 0x0 PUSH2 0x1193 DUP8 DUP3 DUP9 ADD PUSH2 0x1104 JUMP JUMPDEST SWAP5 POP POP PUSH1 0x40 PUSH2 0x11A4 DUP8 DUP3 DUP9 ADD PUSH2 0x1126 JUMP JUMPDEST SWAP4 POP POP PUSH1 0xC0 PUSH2 0x11B5 DUP8 DUP3 DUP9 ADD PUSH2 0x1104 JUMP JUMPDEST SWAP3 POP POP PUSH2 0x100 PUSH2 0x11C7 DUP8 DUP3 DUP9 ADD PUSH2 0x1148 JUMP JUMPDEST SWAP2 POP POP SWAP3 SWAP6 SWAP2 SWAP5 POP SWAP3 POP JUMP JUMPDEST PUSH1 0x0 DUP2 ISZERO ISZERO SWAP1 POP SWAP2 SWAP1 POP JUMP JUMPDEST PUSH2 0x11E8 DUP2 PUSH2 0x11D3 JUMP JUMPDEST DUP3 MSTORE POP POP JUMP JUMPDEST PUSH1 0x0 PUSH1 0x20 DUP3 ADD SWAP1 POP PUSH2 0x1203 PUSH1 0x0 DUP4 ADD DUP5 PUSH2 0x11DF JUMP JUMPDEST SWAP3 SWAP2 POP POP JUMP INVALID LOG2 PUSH5 0x6970667358 0x22 SLT KECCAK256 0xFB 0xBB 0xFC PUSH29 0x24E6EB09FD727BBA756C30345ACADBEB8B328B671D3E69FE6CC71AAE64 PUSH20 0x6F6C634300081300330000000000000000000000 "},"methodIdentifiers":{"verifyProof(uint256[2],uint256[2][2],uint256[2],uint256[34])":"8525a61d"}}}}}