{"contracts/AnonAadhaarVerifier.sol":{"AnonAadhaarVerifier":{"abi":[{"inputs":[{"internalType":"address","name":"_verifierAddr","type":"address"},{"internalType":"uint256","name":"_appId","type":"uint256"}],"stateMutability":"nonpayable","type":"constructor"},{"inputs":[{"internalType":"uint256","name":"","type":"uint256"}],"name":"ISSUER_MODULUS","outputs":[{"internalType":"uint256","name":"","type":"uint256"}],"stateMutability":"view","type":"function"},{"inputs":[],"name":"SNARK_SCALAR_FIELD","outputs":[{"internalType":"uint256","name":"","type":"uint256"}],"stateMutability":"view","type":"function"},{"inputs":[],"name":"appId","outputs":[{"internalType":"uint256","name":"","type":"uint256"}],"stateMutability":"view","type":"function"},{"inputs":[],"name":"verifierAddr","outputs":[{"internalType":"address","name":"","type":"address"}],"stateMutability":"view","type":"function"},{"inputs":[{"internalType":"uint256[2]","name":"a","type":"uint256[2]"},{"internalType":"uint256[2][2]","name":"b","type":"uint256[2][2]"},{"internalType":"uint256[2]","name":"c","type":"uint256[2]"},{"internalType":"uint256[34]","name":"input","type":"uint256[34]"}],"name":"verifyProof","outputs":[{"internalType":"bool","name":"","type":"bool"}],"stateMutability":"view","type":"function"}],"evm":{"bytecode":{"linkReferences":{},"object":"60806040527f30644e72e131a029b85045b68181585d2833e84879b9709143e1f593f0000001600255604051806104000160405280676d4411bc9b53609567ffffffffffffffff16815260200167bb0b61d2472c234a67ffffffffffffffff16815260200167143bff835dbd2bd567ffffffffffffffff1681526020016766adf06a8a41dedf67ffffffffffffffff16815260200167abdebea076a1cf8167ffffffffffffffff16815260200167c7a8b10c0bddebab67ffffffffffffffff168152602001671f69b1e3bbe7949d67ffffffffffffffff1681526020016731f7f48d43af7cf367ffffffffffffffff16815260200167b5c168afdc95121767ffffffffffffffff1681526020016777bea6358436732967ffffffffffffffff1681526020016704c486f1f5d5303967ffffffffffffffff16815260200167926de3adf3ecbb9967ffffffffffffffff16815260200167974f1c7c5115819c67ffffffffffffffff16815260200167384bf58a41c384c367ffffffffffffffff16815260200167f687f7e55bd226a267ffffffffffffffff16815260200167474b08d32d1d040667ffffffffffffffff168152602001672102a4cae093bffd67ffffffffffffffff168152602001675ca69b48ce93005267ffffffffffffffff168152602001674b64158e9f43d9f367ffffffffffffffff16815260200167b2481861c65085d867ffffffffffffffff168152602001672fa954aa52aa6fff67ffffffffffffffff1681526020016715488474b45c2c9867ffffffffffffffff16815260200167fced241d072055dc67ffffffffffffffff168152602001678bcdf859d3daf7f367ffffffffffffffff16815260200167709db2141e6c07c667ffffffffffffffff1681526020016769edbd5cc83b74c767ffffffffffffffff1681526020016725ab0bf55a2fe06b67ffffffffffffffff16815260200167088b4886866b72eb67ffffffffffffffff168152602001670f0bcbf20c80a15c67ffffffffffffffff16815260200167f0b955932390facc67ffffffffffffffff16815260200167707ed93f036ec2b167ffffffffffffffff16815260200167a2722c0e5f2de5ba67ffffffffffffffff168152506003906020620003449291906200040e565b503480156200035257600080fd5b506040516200107e3803806200107e833981810160405281019062000378919062000523565b6002548110620003bf576040517f08c379a0000000000000000000000000000000000000000000000000000000008152600401620003b690620005f1565b60405180910390fd5b80600181905550816000806101000a81548173ffffffffffffffffffffffffffffffffffffffff021916908373ffffffffffffffffffffffffffffffffffffffff160217905550505062000613565b82602081019282156200044c579160200282015b828111156200044b578251829067ffffffffffffffff1690559160200191906001019062000422565b5b5090506200045b91906200045f565b5090565b5b808211156200047a57600081600090555060010162000460565b5090565b600080fd5b600073ffffffffffffffffffffffffffffffffffffffff82169050919050565b6000620004b08262000483565b9050919050565b620004c281620004a3565b8114620004ce57600080fd5b50565b600081519050620004e281620004b7565b92915050565b6000819050919050565b620004fd81620004e8565b81146200050957600080fd5b50565b6000815190506200051d81620004f2565b92915050565b600080604083850312156200053d576200053c6200047e565b5b60006200054d85828601620004d1565b925050602062000560858286016200050c565b9150509250929050565b600082825260208201905092915050565b7f416e6f6e4161646861617256657269666965723a2067726f7570206964206d7560008201527f7374206265203c20534e41524b5f5343414c41525f4649454c44000000000000602082015250565b6000620005d9603a836200056a565b9150620005e6826200057b565b604082019050919050565b600060208201905081810360008301526200060c81620005ca565b9050919050565b610a5b80620006236000396000f3fe608060405234801561001057600080fd5b50600436106100575760003560e01c80630c6bcd541461005c57806325c2cd121461008c578063663ea2e2146100aa57806380afdea8146100c85780638525a61d146100e6575b600080fd5b6100766004803603810190610071919061046d565b610116565b60405161008391906104a9565b60405180910390f35b610094610131565b6040516100a191906104a9565b60405180910390f35b6100b2610137565b6040516100bf9190610505565b60405180910390f35b6100d061015b565b6040516100dd91906104a9565b60405180910390f35b61010060048036038101906100fb919061058b565b610161565b60405161010d919061060f565b60405180910390f35b6003816020811061012657600080fd5b016000915090505481565b60025481565b60008054906101000a900473ffffffffffffffffffffffffffffffffffffffff1681565b60015481565b600060015482600160226101759190610659565b602281106101865761018561068d565b5b6020020135146101cb576040517f08c379a00000000000000000000000000000000000000000000000000000000081526004016101c29061073f565b60405180910390fd5b600061020f836022806020026040519081016040528092919082602260200280828437600081840152601f19601f820116905080830192505050505050600161030b565b90506001151561021e826103c7565b151514610260576040517f08c379a0000000000000000000000000000000000000000000000000000000008152600401610257906107d1565b60405180910390fd5b60008054906101000a900473ffffffffffffffffffffffffffffffffffffffff1673ffffffffffffffffffffffffffffffffffffffff16638525a61d878787876040518563ffffffff1660e01b81526004016102bf94939291906108da565b602060405180830381865afa1580156102dc573d6000803e3d6000fd5b505050506040513d601f19601f82011682018060405250810190610300919061094d565b915050949350505050565b60606000602067ffffffffffffffff81111561032a5761032961097a565b5b6040519080825280602002602001820160405280156103585781602001602082028036833780820191505090505b50905060005b60208110156103bc5784818561037491906109a9565b602281106103855761038461068d565b5b602002015182828151811061039d5761039c61068d565b5b60200260200101818152505080806103b4906109dd565b91505061035e565b508091505092915050565b6000806001905060005b602081101561042857600381602081106103ee576103ed61068d565b5b01548482815181106104035761040261068d565b5b60200260200101511461041557600091505b8080610420906109dd565b9150506103d1565b5080915050919050565b600080fd5b6000819050919050565b61044a81610437565b811461045557600080fd5b50565b60008135905061046781610441565b92915050565b60006020828403121561048357610482610432565b5b600061049184828501610458565b91505092915050565b6104a381610437565b82525050565b60006020820190506104be600083018461049a565b92915050565b600073ffffffffffffffffffffffffffffffffffffffff82169050919050565b60006104ef826104c4565b9050919050565b6104ff816104e4565b82525050565b600060208201905061051a60008301846104f6565b92915050565b600080fd5b60008190508260206002028201111561054157610540610520565b5b92915050565b60008190508260406002028201111561056357610562610520565b5b92915050565b60008190508260206022028201111561058557610584610520565b5b92915050565b60008060008061054085870312156105a6576105a5610432565b5b60006105b487828801610525565b94505060406105c587828801610547565b93505060c06105d687828801610525565b9250506101006105e887828801610569565b91505092959194509250565b60008115159050919050565b610609816105f4565b82525050565b60006020820190506106246000830184610600565b92915050565b7f4e487b7100000000000000000000000000000000000000000000000000000000600052601160045260246000fd5b600061066482610437565b915061066f83610437565b92508282039050818111156106875761068661062a565b5b92915050565b7f4e487b7100000000000000000000000000000000000000000000000000000000600052603260045260246000fd5b600082825260208201905092915050565b7f416e6f6e4161646861617256657269666965723a2077726f6e6720617070204960008201527f4400000000000000000000000000000000000000000000000000000000000000602082015250565b60006107296021836106bc565b9150610734826106cd565b604082019050919050565b600060208201905081810360008301526107588161071c565b9050919050565b7f416e6f6e4161646861617256657269666965723a2077726f6e6720697373756560008201527f72207075626c6963206b65790000000000000000000000000000000000000000602082015250565b60006107bb602c836106bc565b91506107c68261075f565b604082019050919050565b600060208201905081810360008301526107ea816107ae565b9050919050565b82818337505050565b610806604083836107f1565b5050565b600060029050919050565b600081905092915050565b6000819050919050565b610836604083836107f1565b5050565b6000610846838361082a565b60408301905092915050565b600082905092915050565b6000604082019050919050565b6108738161080a565b61087d8184610815565b925061088882610820565b8060005b838110156108c15761089e8284610852565b6108a8878261083a565b96506108b38361085d565b92505060018101905061088c565b505050505050565b6108d661044083836107f1565b5050565b6000610540820190506108f060008301876107fa565b6108fd604083018661086a565b61090a60c08301856107fa565b6109186101008301846108c9565b95945050505050565b61092a816105f4565b811461093557600080fd5b50565b60008151905061094781610921565b92915050565b60006020828403121561096357610962610432565b5b600061097184828501610938565b91505092915050565b7f4e487b7100000000000000000000000000000000000000000000000000000000600052604160045260246000fd5b60006109b482610437565b91506109bf83610437565b92508282019050808211156109d7576109d661062a565b5b92915050565b60006109e882610437565b91507fffffffffffffffffffffffffffffffffffffffffffffffffffffffffffffffff8203610a1a57610a1961062a565b5b60018201905091905056fea2646970667358221220525298b6eded5d907469b8dcae9e70fb70ef3d1a39e18edb1861321502f02fd964736f6c63430008130033","opcodes":"PUSH1 0x80 PUSH1 0x40 MSTORE PUSH32 0x30644E72E131A029B85045B68181585D2833E84879B9709143E1F593F0000001 PUSH1 0x2 SSTORE PUSH1 0x40 MLOAD DUP1 PUSH2 0x400 ADD PUSH1 0x40 MSTORE DUP1 PUSH8 0x6D4411BC9B536095 PUSH8 0xFFFFFFFFFFFFFFFF AND DUP2 MSTORE PUSH1 0x20 ADD PUSH8 0xBB0B61D2472C234A PUSH8 0xFFFFFFFFFFFFFFFF AND DUP2 MSTORE PUSH1 0x20 ADD PUSH8 0x143BFF835DBD2BD5 PUSH8 0xFFFFFFFFFFFFFFFF AND DUP2 MSTORE PUSH1 0x20 ADD PUSH8 0x66ADF06A8A41DEDF PUSH8 0xFFFFFFFFFFFFFFFF AND DUP2 MSTORE PUSH1 0x20 ADD PUSH8 0xABDEBEA076A1CF81 PUSH8 0xFFFFFFFFFFFFFFFF AND DUP2 MSTORE PUSH1 0x20 ADD PUSH8 0xC7A8B10C0BDDEBAB PUSH8 0xFFFFFFFFFFFFFFFF AND DUP2 MSTORE PUSH1 0x20 ADD PUSH8 0x1F69B1E3BBE7949D PUSH8 0xFFFFFFFFFFFFFFFF AND DUP2 MSTORE PUSH1 0x20 ADD PUSH8 0x31F7F48D43AF7CF3 PUSH8 0xFFFFFFFFFFFFFFFF AND DUP2 MSTORE PUSH1 0x20 ADD PUSH8 0xB5C168AFDC951217 PUSH8 0xFFFFFFFFFFFFFFFF AND DUP2 MSTORE PUSH1 0x20 ADD PUSH8 0x77BEA63584367329 PUSH8 0xFFFFFFFFFFFFFFFF AND DUP2 MSTORE PUSH1 0x20 ADD PUSH8 0x4C486F1F5D53039 PUSH8 0xFFFFFFFFFFFFFFFF AND DUP2 MSTORE PUSH1 0x20 ADD PUSH8 0x926DE3ADF3ECBB99 PUSH8 0xFFFFFFFFFFFFFFFF AND DUP2 MSTORE PUSH1 0x20 ADD PUSH8 0x974F1C7C5115819C PUSH8 0xFFFFFFFFFFFFFFFF AND DUP2 MSTORE PUSH1 0x20 ADD PUSH8 0x384BF58A41C384C3 PUSH8 0xFFFFFFFFFFFFFFFF AND DUP2 MSTORE PUSH1 0x20 ADD PUSH8 0xF687F7E55BD226A2 PUSH8 0xFFFFFFFFFFFFFFFF AND DUP2 MSTORE PUSH1 0x20 ADD PUSH8 0x474B08D32D1D0406 PUSH8 0xFFFFFFFFFFFFFFFF AND DUP2 MSTORE PUSH1 0x20 ADD PUSH8 0x2102A4CAE093BFFD PUSH8 0xFFFFFFFFFFFFFFFF AND DUP2 MSTORE PUSH1 0x20 ADD PUSH8 0x5CA69B48CE930052 PUSH8 0xFFFFFFFFFFFFFFFF AND DUP2 MSTORE PUSH1 0x20 ADD PUSH8 0x4B64158E9F43D9F3 PUSH8 0xFFFFFFFFFFFFFFFF AND DUP2 MSTORE PUSH1 0x20 ADD PUSH8 0xB2481861C65085D8 PUSH8 0xFFFFFFFFFFFFFFFF AND DUP2 MSTORE PUSH1 0x20 ADD PUSH8 0x2FA954AA52AA6FFF PUSH8 0xFFFFFFFFFFFFFFFF AND DUP2 MSTORE PUSH1 0x20 ADD PUSH8 0x15488474B45C2C98 PUSH8 0xFFFFFFFFFFFFFFFF AND DUP2 MSTORE PUSH1 0x20 ADD PUSH8 0xFCED241D072055DC PUSH8 0xFFFFFFFFFFFFFFFF AND DUP2 MSTORE PUSH1 0x20 ADD PUSH8 0x8BCDF859D3DAF7F3 PUSH8 0xFFFFFFFFFFFFFFFF AND DUP2 MSTORE PUSH1 0x20 ADD PUSH8 0x709DB2141E6C07C6 PUSH8 0xFFFFFFFFFFFFFFFF AND DUP2 MSTORE PUSH1 0x20 ADD PUSH8 0x69EDBD5CC83B74C7 PUSH8 0xFFFFFFFFFFFFFFFF AND DUP2 MSTORE PUSH1 0x20 ADD PUSH8 0x25AB0BF55A2FE06B PUSH8 0xFFFFFFFFFFFFFFFF AND DUP2 MSTORE PUSH1 0x20 ADD PUSH8 0x88B4886866B72EB PUSH8 0xFFFFFFFFFFFFFFFF AND DUP2 MSTORE PUSH1 0x20 ADD PUSH8 0xF0BCBF20C80A15C PUSH8 0xFFFFFFFFFFFFFFFF AND DUP2 MSTORE PUSH1 0x20 ADD PUSH8 0xF0B955932390FACC PUSH8 0xFFFFFFFFFFFFFFFF AND DUP2 MSTORE PUSH1 0x20 ADD PUSH8 0x707ED93F036EC2B1 PUSH8 0xFFFFFFFFFFFFFFFF AND DUP2 MSTORE PUSH1 0x20 ADD PUSH8 0xA2722C0E5F2DE5BA PUSH8 0xFFFFFFFFFFFFFFFF AND DUP2 MSTORE POP PUSH1 0x3 SWAP1 PUSH1 0x20 PUSH3 0x344 SWAP3 SWAP2 SWAP1 PUSH3 0x40E JUMP JUMPDEST POP CALLVALUE DUP1 ISZERO PUSH3 0x352 JUMPI PUSH1 0x0 DUP1 REVERT JUMPDEST POP PUSH1 0x40 MLOAD PUSH3 0x107E CODESIZE SUB DUP1 PUSH3 0x107E DUP4 CODECOPY DUP2 DUP2 ADD PUSH1 0x40 MSTORE DUP2 ADD SWAP1 PUSH3 0x378 SWAP2 SWAP1 PUSH3 0x523 JUMP JUMPDEST PUSH1 0x2 SLOAD DUP2 LT PUSH3 0x3BF JUMPI PUSH1 0x40 MLOAD PUSH32 0x8C379A000000000000000000000000000000000000000000000000000000000 DUP2 MSTORE PUSH1 0x4 ADD PUSH3 0x3B6 SWAP1 PUSH3 0x5F1 JUMP JUMPDEST PUSH1 0x40 MLOAD DUP1 SWAP2 SUB SWAP1 REVERT JUMPDEST DUP1 PUSH1 0x1 DUP2 SWAP1 SSTORE POP DUP2 PUSH1 0x0 DUP1 PUSH2 0x100 EXP DUP2 SLOAD DUP2 PUSH20 0xFFFFFFFFFFFFFFFFFFFFFFFFFFFFFFFFFFFFFFFF MUL NOT AND SWAP1 DUP4 PUSH20 0xFFFFFFFFFFFFFFFFFFFFFFFFFFFFFFFFFFFFFFFF AND MUL OR SWAP1 SSTORE POP POP POP PUSH3 0x613 JUMP JUMPDEST DUP3 PUSH1 0x20 DUP2 ADD SWAP3 DUP3 ISZERO PUSH3 0x44C JUMPI SWAP2 PUSH1 0x20 MUL DUP3 ADD JUMPDEST DUP3 DUP2 GT ISZERO PUSH3 0x44B JUMPI DUP3 MLOAD DUP3 SWAP1 PUSH8 0xFFFFFFFFFFFFFFFF AND SWAP1 SSTORE SWAP2 PUSH1 0x20 ADD SWAP2 SWAP1 PUSH1 0x1 ADD SWAP1 PUSH3 0x422 JUMP JUMPDEST JUMPDEST POP SWAP1 POP PUSH3 0x45B SWAP2 SWAP1 PUSH3 0x45F JUMP JUMPDEST POP SWAP1 JUMP JUMPDEST JUMPDEST DUP1 DUP3 GT ISZERO PUSH3 0x47A JUMPI PUSH1 0x0 DUP2 PUSH1 0x0 SWAP1 SSTORE POP PUSH1 0x1 ADD PUSH3 0x460 JUMP JUMPDEST POP SWAP1 JUMP JUMPDEST PUSH1 0x0 DUP1 REVERT JUMPDEST PUSH1 0x0 PUSH20 0xFFFFFFFFFFFFFFFFFFFFFFFFFFFFFFFFFFFFFFFF DUP3 AND SWAP1 POP SWAP2 SWAP1 POP JUMP JUMPDEST PUSH1 0x0 PUSH3 0x4B0 DUP3 PUSH3 0x483 JUMP JUMPDEST SWAP1 POP SWAP2 SWAP1 POP JUMP JUMPDEST PUSH3 0x4C2 DUP2 PUSH3 0x4A3 JUMP JUMPDEST DUP2 EQ PUSH3 0x4CE JUMPI PUSH1 0x0 DUP1 REVERT JUMPDEST POP JUMP JUMPDEST PUSH1 0x0 DUP2 MLOAD SWAP1 POP PUSH3 0x4E2 DUP2 PUSH3 0x4B7 JUMP JUMPDEST SWAP3 SWAP2 POP POP JUMP JUMPDEST PUSH1 0x0 DUP2 SWAP1 POP SWAP2 SWAP1 POP JUMP JUMPDEST PUSH3 0x4FD DUP2 PUSH3 0x4E8 JUMP JUMPDEST DUP2 EQ PUSH3 0x509 JUMPI PUSH1 0x0 DUP1 REVERT JUMPDEST POP JUMP JUMPDEST PUSH1 0x0 DUP2 MLOAD SWAP1 POP PUSH3 0x51D DUP2 PUSH3 0x4F2 JUMP JUMPDEST SWAP3 SWAP2 POP POP JUMP JUMPDEST PUSH1 0x0 DUP1 PUSH1 0x40 DUP4 DUP6 SUB SLT ISZERO PUSH3 0x53D JUMPI PUSH3 0x53C PUSH3 0x47E JUMP JUMPDEST JUMPDEST PUSH1 0x0 PUSH3 0x54D DUP6 DUP3 DUP7 ADD PUSH3 0x4D1 JUMP JUMPDEST SWAP3 POP POP PUSH1 0x20 PUSH3 0x560 DUP6 DUP3 DUP7 ADD PUSH3 0x50C JUMP JUMPDEST SWAP2 POP POP SWAP3 POP SWAP3 SWAP1 POP JUMP JUMPDEST PUSH1 0x0 DUP3 DUP3 MSTORE PUSH1 0x20 DUP3 ADD SWAP1 POP SWAP3 SWAP2 POP POP JUMP JUMPDEST PUSH32 0x416E6F6E4161646861617256657269666965723A2067726F7570206964206D75 PUSH1 0x0 DUP3 ADD MSTORE PUSH32 0x7374206265203C20534E41524B5F5343414C41525F4649454C44000000000000 PUSH1 0x20 DUP3 ADD MSTORE POP JUMP JUMPDEST PUSH1 0x0 PUSH3 0x5D9 PUSH1 0x3A DUP4 PUSH3 0x56A JUMP JUMPDEST SWAP2 POP PUSH3 0x5E6 DUP3 PUSH3 0x57B JUMP JUMPDEST PUSH1 0x40 DUP3 ADD SWAP1 POP SWAP2 SWAP1 POP JUMP JUMPDEST PUSH1 0x0 PUSH1 0x20 DUP3 ADD SWAP1 POP DUP2 DUP2 SUB PUSH1 0x0 DUP4 ADD MSTORE PUSH3 0x60C DUP2 PUSH3 0x5CA JUMP JUMPDEST SWAP1 POP SWAP2 SWAP1 POP JUMP JUMPDEST PUSH2 0xA5B DUP1 PUSH3 0x623 PUSH1 0x0 CODECOPY PUSH1 0x0 RETURN INVALID PUSH1 0x80 PUSH1 0x40 MSTORE CALLVALUE DUP1 ISZERO PUSH2 0x10 JUMPI PUSH1 0x0 DUP1 REVERT JUMPDEST POP PUSH1 0x4 CALLDATASIZE LT PUSH2 0x57 JUMPI PUSH1 0x0 CALLDATALOAD PUSH1 0xE0 SHR DUP1 PUSH4 0xC6BCD54 EQ PUSH2 0x5C JUMPI DUP1 PUSH4 0x25C2CD12 EQ PUSH2 0x8C JUMPI DUP1 PUSH4 0x663EA2E2 EQ PUSH2 0xAA JUMPI DUP1 PUSH4 0x80AFDEA8 EQ PUSH2 0xC8 JUMPI DUP1 PUSH4 0x8525A61D EQ PUSH2 0xE6 JUMPI JUMPDEST PUSH1 0x0 DUP1 REVERT JUMPDEST PUSH2 0x76 PUSH1 0x4 DUP1 CALLDATASIZE SUB DUP2 ADD SWAP1 PUSH2 0x71 SWAP2 SWAP1 PUSH2 0x46D JUMP JUMPDEST PUSH2 0x116 JUMP JUMPDEST PUSH1 0x40 MLOAD PUSH2 0x83 SWAP2 SWAP1 PUSH2 0x4A9 JUMP JUMPDEST PUSH1 0x40 MLOAD DUP1 SWAP2 SUB SWAP1 RETURN JUMPDEST PUSH2 0x94 PUSH2 0x131 JUMP JUMPDEST PUSH1 0x40 MLOAD PUSH2 0xA1 SWAP2 SWAP1 PUSH2 0x4A9 JUMP JUMPDEST PUSH1 0x40 MLOAD DUP1 SWAP2 SUB SWAP1 RETURN JUMPDEST PUSH2 0xB2 PUSH2 0x137 JUMP JUMPDEST PUSH1 0x40 MLOAD PUSH2 0xBF SWAP2 SWAP1 PUSH2 0x505 JUMP JUMPDEST PUSH1 0x40 MLOAD DUP1 SWAP2 SUB SWAP1 RETURN JUMPDEST PUSH2 0xD0 PUSH2 0x15B JUMP JUMPDEST PUSH1 0x40 MLOAD PUSH2 0xDD SWAP2 SWAP1 PUSH2 0x4A9 JUMP JUMPDEST PUSH1 0x40 MLOAD DUP1 SWAP2 SUB SWAP1 RETURN JUMPDEST PUSH2 0x100 PUSH1 0x4 DUP1 CALLDATASIZE SUB DUP2 ADD SWAP1 PUSH2 0xFB SWAP2 SWAP1 PUSH2 0x58B JUMP JUMPDEST PUSH2 0x161 JUMP JUMPDEST PUSH1 0x40 MLOAD PUSH2 0x10D SWAP2 SWAP1 PUSH2 0x60F JUMP JUMPDEST PUSH1 0x40 MLOAD DUP1 SWAP2 SUB SWAP1 RETURN JUMPDEST PUSH1 0x3 DUP2 PUSH1 0x20 DUP2 LT PUSH2 0x126 JUMPI PUSH1 0x0 DUP1 REVERT JUMPDEST ADD PUSH1 0x0 SWAP2 POP SWAP1 POP SLOAD DUP2 JUMP JUMPDEST PUSH1 0x2 SLOAD DUP2 JUMP JUMPDEST PUSH1 0x0 DUP1 SLOAD SWAP1 PUSH2 0x100 EXP SWAP1 DIV PUSH20 0xFFFFFFFFFFFFFFFFFFFFFFFFFFFFFFFFFFFFFFFF AND DUP2 JUMP JUMPDEST PUSH1 0x1 SLOAD DUP2 JUMP JUMPDEST PUSH1 0x0 PUSH1 0x1 SLOAD DUP3 PUSH1 0x1 PUSH1 0x22 PUSH2 0x175 SWAP2 SWAP1 PUSH2 0x659 JUMP JUMPDEST PUSH1 0x22 DUP2 LT PUSH2 0x186 JUMPI PUSH2 0x185 PUSH2 0x68D JUMP JUMPDEST JUMPDEST PUSH1 0x20 MUL ADD CALLDATALOAD EQ PUSH2 0x1CB JUMPI PUSH1 0x40 MLOAD PUSH32 0x8C379A000000000000000000000000000000000000000000000000000000000 DUP2 MSTORE PUSH1 0x4 ADD PUSH2 0x1C2 SWAP1 PUSH2 0x73F JUMP JUMPDEST PUSH1 0x40 MLOAD DUP1 SWAP2 SUB SWAP1 REVERT JUMPDEST PUSH1 0x0 PUSH2 0x20F DUP4 PUSH1 0x22 DUP1 PUSH1 0x20 MUL PUSH1 0x40 MLOAD SWAP1 DUP2 ADD PUSH1 0x40 MSTORE DUP1 SWAP3 SWAP2 SWAP1 DUP3 PUSH1 0x22 PUSH1 0x20 MUL DUP1 DUP3 DUP5 CALLDATACOPY PUSH1 0x0 DUP2 DUP5 ADD MSTORE PUSH1 0x1F NOT PUSH1 0x1F DUP3 ADD AND SWAP1 POP DUP1 DUP4 ADD SWAP3 POP POP POP POP POP POP PUSH1 0x1 PUSH2 0x30B JUMP JUMPDEST SWAP1 POP PUSH1 0x1 ISZERO ISZERO PUSH2 0x21E DUP3 PUSH2 0x3C7 JUMP JUMPDEST ISZERO ISZERO EQ PUSH2 0x260 JUMPI PUSH1 0x40 MLOAD PUSH32 0x8C379A000000000000000000000000000000000000000000000000000000000 DUP2 MSTORE PUSH1 0x4 ADD PUSH2 0x257 SWAP1 PUSH2 0x7D1 JUMP JUMPDEST PUSH1 0x40 MLOAD DUP1 SWAP2 SUB SWAP1 REVERT JUMPDEST PUSH1 0x0 DUP1 SLOAD SWAP1 PUSH2 0x100 EXP SWAP1 DIV PUSH20 0xFFFFFFFFFFFFFFFFFFFFFFFFFFFFFFFFFFFFFFFF AND PUSH20 0xFFFFFFFFFFFFFFFFFFFFFFFFFFFFFFFFFFFFFFFF AND PUSH4 0x8525A61D DUP8 DUP8 DUP8 DUP8 PUSH1 0x40 MLOAD DUP6 PUSH4 0xFFFFFFFF AND PUSH1 0xE0 SHL DUP2 MSTORE PUSH1 0x4 ADD PUSH2 0x2BF SWAP5 SWAP4 SWAP3 SWAP2 SWAP1 PUSH2 0x8DA JUMP JUMPDEST PUSH1 0x20 PUSH1 0x40 MLOAD DUP1 DUP4 SUB DUP2 DUP7 GAS STATICCALL ISZERO DUP1 ISZERO PUSH2 0x2DC JUMPI RETURNDATASIZE PUSH1 0x0 DUP1 RETURNDATACOPY RETURNDATASIZE PUSH1 0x0 REVERT JUMPDEST POP POP POP POP PUSH1 0x40 MLOAD RETURNDATASIZE PUSH1 0x1F NOT PUSH1 0x1F DUP3 ADD AND DUP3 ADD DUP1 PUSH1 0x40 MSTORE POP DUP2 ADD SWAP1 PUSH2 0x300 SWAP2 SWAP1 PUSH2 0x94D JUMP JUMPDEST SWAP2 POP POP SWAP5 SWAP4 POP POP POP POP JUMP JUMPDEST PUSH1 0x60 PUSH1 0x0 PUSH1 0x20 PUSH8 0xFFFFFFFFFFFFFFFF DUP2 GT ISZERO PUSH2 0x32A JUMPI PUSH2 0x329 PUSH2 0x97A JUMP JUMPDEST JUMPDEST PUSH1 0x40 MLOAD SWAP1 DUP1 DUP3 MSTORE DUP1 PUSH1 0x20 MUL PUSH1 0x20 ADD DUP3 ADD PUSH1 0x40 MSTORE DUP1 ISZERO PUSH2 0x358 JUMPI DUP2 PUSH1 0x20 ADD PUSH1 0x20 DUP3 MUL DUP1 CALLDATASIZE DUP4 CALLDATACOPY DUP1 DUP3 ADD SWAP2 POP POP SWAP1 POP JUMPDEST POP SWAP1 POP PUSH1 0x0 JUMPDEST PUSH1 0x20 DUP2 LT ISZERO PUSH2 0x3BC JUMPI DUP5 DUP2 DUP6 PUSH2 0x374 SWAP2 SWAP1 PUSH2 0x9A9 JUMP JUMPDEST PUSH1 0x22 DUP2 LT PUSH2 0x385 JUMPI PUSH2 0x384 PUSH2 0x68D JUMP JUMPDEST JUMPDEST PUSH1 0x20 MUL ADD MLOAD DUP3 DUP3 DUP2 MLOAD DUP2 LT PUSH2 0x39D JUMPI PUSH2 0x39C PUSH2 0x68D JUMP JUMPDEST JUMPDEST PUSH1 0x20 MUL PUSH1 0x20 ADD ADD DUP2 DUP2 MSTORE POP POP DUP1 DUP1 PUSH2 0x3B4 SWAP1 PUSH2 0x9DD JUMP JUMPDEST SWAP2 POP POP PUSH2 0x35E JUMP JUMPDEST POP DUP1 SWAP2 POP POP SWAP3 SWAP2 POP POP JUMP JUMPDEST PUSH1 0x0 DUP1 PUSH1 0x1 SWAP1 POP PUSH1 0x0 JUMPDEST PUSH1 0x20 DUP2 LT ISZERO PUSH2 0x428 JUMPI PUSH1 0x3 DUP2 PUSH1 0x20 DUP2 LT PUSH2 0x3EE JUMPI PUSH2 0x3ED PUSH2 0x68D JUMP JUMPDEST JUMPDEST ADD SLOAD DUP5 DUP3 DUP2 MLOAD DUP2 LT PUSH2 0x403 JUMPI PUSH2 0x402 PUSH2 0x68D JUMP JUMPDEST JUMPDEST PUSH1 0x20 MUL PUSH1 0x20 ADD ADD MLOAD EQ PUSH2 0x415 JUMPI PUSH1 0x0 SWAP2 POP JUMPDEST DUP1 DUP1 PUSH2 0x420 SWAP1 PUSH2 0x9DD JUMP JUMPDEST SWAP2 POP POP PUSH2 0x3D1 JUMP JUMPDEST POP DUP1 SWAP2 POP POP SWAP2 SWAP1 POP JUMP JUMPDEST PUSH1 0x0 DUP1 REVERT JUMPDEST PUSH1 0x0 DUP2 SWAP1 POP SWAP2 SWAP1 POP JUMP JUMPDEST PUSH2 0x44A DUP2 PUSH2 0x437 JUMP JUMPDEST DUP2 EQ PUSH2 0x455 JUMPI PUSH1 0x0 DUP1 REVERT JUMPDEST POP JUMP JUMPDEST PUSH1 0x0 DUP2 CALLDATALOAD SWAP1 POP PUSH2 0x467 DUP2 PUSH2 0x441 JUMP JUMPDEST SWAP3 SWAP2 POP POP JUMP JUMPDEST PUSH1 0x0 PUSH1 0x20 DUP3 DUP5 SUB SLT ISZERO PUSH2 0x483 JUMPI PUSH2 0x482 PUSH2 0x432 JUMP JUMPDEST JUMPDEST PUSH1 0x0 PUSH2 0x491 DUP5 DUP3 DUP6 ADD PUSH2 0x458 JUMP JUMPDEST SWAP2 POP POP SWAP3 SWAP2 POP POP JUMP JUMPDEST PUSH2 0x4A3 DUP2 PUSH2 0x437 JUMP JUMPDEST DUP3 MSTORE POP POP JUMP JUMPDEST PUSH1 0x0 PUSH1 0x20 DUP3 ADD SWAP1 POP PUSH2 0x4BE PUSH1 0x0 DUP4 ADD DUP5 PUSH2 0x49A JUMP JUMPDEST SWAP3 SWAP2 POP POP JUMP JUMPDEST PUSH1 0x0 PUSH20 0xFFFFFFFFFFFFFFFFFFFFFFFFFFFFFFFFFFFFFFFF DUP3 AND SWAP1 POP SWAP2 SWAP1 POP JUMP JUMPDEST PUSH1 0x0 PUSH2 0x4EF DUP3 PUSH2 0x4C4 JUMP JUMPDEST SWAP1 POP SWAP2 SWAP1 POP JUMP JUMPDEST PUSH2 0x4FF DUP2 PUSH2 0x4E4 JUMP JUMPDEST DUP3 MSTORE POP POP JUMP JUMPDEST PUSH1 0x0 PUSH1 0x20 DUP3 ADD SWAP1 POP PUSH2 0x51A PUSH1 0x0 DUP4 ADD DUP5 PUSH2 0x4F6 JUMP JUMPDEST SWAP3 SWAP2 POP POP JUMP JUMPDEST PUSH1 0x0 DUP1 REVERT JUMPDEST PUSH1 0x0 DUP2 SWAP1 POP DUP3 PUSH1 0x20 PUSH1 0x2 MUL DUP3 ADD GT ISZERO PUSH2 0x541 JUMPI PUSH2 0x540 PUSH2 0x520 JUMP JUMPDEST JUMPDEST SWAP3 SWAP2 POP POP JUMP JUMPDEST PUSH1 0x0 DUP2 SWAP1 POP DUP3 PUSH1 0x40 PUSH1 0x2 MUL DUP3 ADD GT ISZERO PUSH2 0x563 JUMPI PUSH2 0x562 PUSH2 0x520 JUMP JUMPDEST JUMPDEST SWAP3 SWAP2 POP POP JUMP JUMPDEST PUSH1 0x0 DUP2 SWAP1 POP DUP3 PUSH1 0x20 PUSH1 0x22 MUL DUP3 ADD GT ISZERO PUSH2 0x585 JUMPI PUSH2 0x584 PUSH2 0x520 JUMP JUMPDEST JUMPDEST SWAP3 SWAP2 POP POP JUMP JUMPDEST PUSH1 0x0 DUP1 PUSH1 0x0 DUP1 PUSH2 0x540 DUP6 DUP8 SUB SLT ISZERO PUSH2 0x5A6 JUMPI PUSH2 0x5A5 PUSH2 0x432 JUMP JUMPDEST JUMPDEST PUSH1 0x0 PUSH2 0x5B4 DUP8 DUP3 DUP9 ADD PUSH2 0x525 JUMP JUMPDEST SWAP5 POP POP PUSH1 0x40 PUSH2 0x5C5 DUP8 DUP3 DUP9 ADD PUSH2 0x547 JUMP JUMPDEST SWAP4 POP POP PUSH1 0xC0 PUSH2 0x5D6 DUP8 DUP3 DUP9 ADD PUSH2 0x525 JUMP JUMPDEST SWAP3 POP POP PUSH2 0x100 PUSH2 0x5E8 DUP8 DUP3 DUP9 ADD PUSH2 0x569 JUMP JUMPDEST SWAP2 POP POP SWAP3 SWAP6 SWAP2 SWAP5 POP SWAP3 POP JUMP JUMPDEST PUSH1 0x0 DUP2 ISZERO ISZERO SWAP1 POP SWAP2 SWAP1 POP JUMP JUMPDEST PUSH2 0x609 DUP2 PUSH2 0x5F4 JUMP JUMPDEST DUP3 MSTORE POP POP JUMP JUMPDEST PUSH1 0x0 PUSH1 0x20 DUP3 ADD SWAP1 POP PUSH2 0x624 PUSH1 0x0 DUP4 ADD DUP5 PUSH2 0x600 JUMP JUMPDEST SWAP3 SWAP2 POP POP JUMP JUMPDEST PUSH32 0x4E487B7100000000000000000000000000000000000000000000000000000000 PUSH1 0x0 MSTORE PUSH1 0x11 PUSH1 0x4 MSTORE PUSH1 0x24 PUSH1 0x0 REVERT JUMPDEST PUSH1 0x0 PUSH2 0x664 DUP3 PUSH2 0x437 JUMP JUMPDEST SWAP2 POP PUSH2 0x66F DUP4 PUSH2 0x437 JUMP JUMPDEST SWAP3 POP DUP3 DUP3 SUB SWAP1 POP DUP2 DUP2 GT ISZERO PUSH2 0x687 JUMPI PUSH2 0x686 PUSH2 0x62A JUMP JUMPDEST JUMPDEST SWAP3 SWAP2 POP POP JUMP JUMPDEST PUSH32 0x4E487B7100000000000000000000000000000000000000000000000000000000 PUSH1 0x0 MSTORE PUSH1 0x32 PUSH1 0x4 MSTORE PUSH1 0x24 PUSH1 0x0 REVERT JUMPDEST PUSH1 0x0 DUP3 DUP3 MSTORE PUSH1 0x20 DUP3 ADD SWAP1 POP SWAP3 SWAP2 POP POP JUMP JUMPDEST PUSH32 0x416E6F6E4161646861617256657269666965723A2077726F6E67206170702049 PUSH1 0x0 DUP3 ADD MSTORE PUSH32 0x4400000000000000000000000000000000000000000000000000000000000000 PUSH1 0x20 DUP3 ADD MSTORE POP JUMP JUMPDEST PUSH1 0x0 PUSH2 0x729 PUSH1 0x21 DUP4 PUSH2 0x6BC JUMP JUMPDEST SWAP2 POP PUSH2 0x734 DUP3 PUSH2 0x6CD JUMP JUMPDEST PUSH1 0x40 DUP3 ADD SWAP1 POP SWAP2 SWAP1 POP JUMP JUMPDEST PUSH1 0x0 PUSH1 0x20 DUP3 ADD SWAP1 POP DUP2 DUP2 SUB PUSH1 0x0 DUP4 ADD MSTORE PUSH2 0x758 DUP2 PUSH2 0x71C JUMP JUMPDEST SWAP1 POP SWAP2 SWAP1 POP JUMP JUMPDEST PUSH32 0x416E6F6E4161646861617256657269666965723A2077726F6E67206973737565 PUSH1 0x0 DUP3 ADD MSTORE PUSH32 0x72207075626C6963206B65790000000000000000000000000000000000000000 PUSH1 0x20 DUP3 ADD MSTORE POP JUMP JUMPDEST PUSH1 0x0 PUSH2 0x7BB PUSH1 0x2C DUP4 PUSH2 0x6BC JUMP JUMPDEST SWAP2 POP PUSH2 0x7C6 DUP3 PUSH2 0x75F JUMP JUMPDEST PUSH1 0x40 DUP3 ADD SWAP1 POP SWAP2 SWAP1 POP JUMP JUMPDEST PUSH1 0x0 PUSH1 0x20 DUP3 ADD SWAP1 POP DUP2 DUP2 SUB PUSH1 0x0 DUP4 ADD MSTORE PUSH2 0x7EA DUP2 PUSH2 0x7AE JUMP JUMPDEST SWAP1 POP SWAP2 SWAP1 POP JUMP JUMPDEST DUP3 DUP2 DUP4 CALLDATACOPY POP POP POP JUMP JUMPDEST PUSH2 0x806 PUSH1 0x40 DUP4 DUP4 PUSH2 0x7F1 JUMP JUMPDEST POP POP JUMP JUMPDEST PUSH1 0x0 PUSH1 0x2 SWAP1 POP SWAP2 SWAP1 POP JUMP JUMPDEST PUSH1 0x0 DUP2 SWAP1 POP SWAP3 SWAP2 POP POP JUMP JUMPDEST PUSH1 0x0 DUP2 SWAP1 POP SWAP2 SWAP1 POP JUMP JUMPDEST PUSH2 0x836 PUSH1 0x40 DUP4 DUP4 PUSH2 0x7F1 JUMP JUMPDEST POP POP JUMP JUMPDEST PUSH1 0x0 PUSH2 0x846 DUP4 DUP4 PUSH2 0x82A JUMP JUMPDEST PUSH1 0x40 DUP4 ADD SWAP1 POP SWAP3 SWAP2 POP POP JUMP JUMPDEST PUSH1 0x0 DUP3 SWAP1 POP SWAP3 SWAP2 POP POP JUMP JUMPDEST PUSH1 0x0 PUSH1 0x40 DUP3 ADD SWAP1 POP SWAP2 SWAP1 POP JUMP JUMPDEST PUSH2 0x873 DUP2 PUSH2 0x80A JUMP JUMPDEST PUSH2 0x87D DUP2 DUP5 PUSH2 0x815 JUMP JUMPDEST SWAP3 POP PUSH2 0x888 DUP3 PUSH2 0x820 JUMP JUMPDEST DUP1 PUSH1 0x0 JUMPDEST DUP4 DUP2 LT ISZERO PUSH2 0x8C1 JUMPI PUSH2 0x89E DUP3 DUP5 PUSH2 0x852 JUMP JUMPDEST PUSH2 0x8A8 DUP8 DUP3 PUSH2 0x83A JUMP JUMPDEST SWAP7 POP PUSH2 0x8B3 DUP4 PUSH2 0x85D JUMP JUMPDEST SWAP3 POP POP PUSH1 0x1 DUP2 ADD SWAP1 POP PUSH2 0x88C JUMP JUMPDEST POP POP POP POP POP POP JUMP JUMPDEST PUSH2 0x8D6 PUSH2 0x440 DUP4 DUP4 PUSH2 0x7F1 JUMP JUMPDEST POP POP JUMP JUMPDEST PUSH1 0x0 PUSH2 0x540 DUP3 ADD SWAP1 POP PUSH2 0x8F0 PUSH1 0x0 DUP4 ADD DUP8 PUSH2 0x7FA JUMP JUMPDEST PUSH2 0x8FD PUSH1 0x40 DUP4 ADD DUP7 PUSH2 0x86A JUMP JUMPDEST PUSH2 0x90A PUSH1 0xC0 DUP4 ADD DUP6 PUSH2 0x7FA JUMP JUMPDEST PUSH2 0x918 PUSH2 0x100 DUP4 ADD DUP5 PUSH2 0x8C9 JUMP JUMPDEST SWAP6 SWAP5 POP POP POP POP POP JUMP JUMPDEST PUSH2 0x92A DUP2 PUSH2 0x5F4 JUMP JUMPDEST DUP2 EQ PUSH2 0x935 JUMPI PUSH1 0x0 DUP1 REVERT JUMPDEST POP JUMP JUMPDEST PUSH1 0x0 DUP2 MLOAD SWAP1 POP PUSH2 0x947 DUP2 PUSH2 0x921 JUMP JUMPDEST SWAP3 SWAP2 POP POP JUMP JUMPDEST PUSH1 0x0 PUSH1 0x20 DUP3 DUP5 SUB SLT ISZERO PUSH2 0x963 JUMPI PUSH2 0x962 PUSH2 0x432 JUMP JUMPDEST JUMPDEST PUSH1 0x0 PUSH2 0x971 DUP5 DUP3 DUP6 ADD PUSH2 0x938 JUMP JUMPDEST SWAP2 POP POP SWAP3 SWAP2 POP POP JUMP JUMPDEST PUSH32 0x4E487B7100000000000000000000000000000000000000000000000000000000 PUSH1 0x0 MSTORE PUSH1 0x41 PUSH1 0x4 MSTORE PUSH1 0x24 PUSH1 0x0 REVERT JUMPDEST PUSH1 0x0 PUSH2 0x9B4 DUP3 PUSH2 0x437 JUMP JUMPDEST SWAP2 POP PUSH2 0x9BF DUP4 PUSH2 0x437 JUMP JUMPDEST SWAP3 POP DUP3 DUP3 ADD SWAP1 POP DUP1 DUP3 GT ISZERO PUSH2 0x9D7 JUMPI PUSH2 0x9D6 PUSH2 0x62A JUMP JUMPDEST JUMPDEST SWAP3 SWAP2 POP POP JUMP JUMPDEST PUSH1 0x0 PUSH2 0x9E8 DUP3 PUSH2 0x437 JUMP JUMPDEST SWAP2 POP PUSH32 0xFFFFFFFFFFFFFFFFFFFFFFFFFFFFFFFFFFFFFFFFFFFFFFFFFFFFFFFFFFFFFFFF DUP3 SUB PUSH2 0xA1A JUMPI PUSH2 0xA19 PUSH2 0x62A JUMP JUMPDEST JUMPDEST PUSH1 0x1 DUP3 ADD SWAP1 POP SWAP2 SWAP1 POP JUMP INVALID LOG2 PUSH5 0x6970667358 0x22 SLT KECCAK256 MSTORE MSTORE SWAP9 0xB6 0xED 0xED 0x5D SWAP1 PUSH21 0x69B8DCAE9E70FB70EF3D1A39E18EDB1861321502F0 0x2F 0xD9 PUSH5 0x736F6C6343 STOP ADDMOD SGT STOP CALLER "},"methodIdentifiers":{"ISSUER_MODULUS(uint256)":"0c6bcd54","SNARK_SCALAR_FIELD()":"25c2cd12","appId()":"80afdea8","verifierAddr()":"663ea2e2","verifyProof(uint256[2],uint256[2][2],uint256[2],uint256[34])":"8525a61d"}}}}}