{
  "_format": "hh-sol-artifact-1",
  "contractName": "Vote",
  "sourceName": "contracts/Vote.sol",
  "abi": [
    {
      "inputs": [
        {
          "internalType": "string",
          "name": "_votingQuestion",
          "type": "string"
        },
        {
          "internalType": "string[]",
          "name": "proposalDescriptions",
          "type": "string[]"
        },
        {
          "internalType": "address",
          "name": "_verifierAddr",
          "type": "address"
        }
      ],
      "stateMutability": "nonpayable",
      "type": "constructor"
    },
    {
      "anonymous": false,
      "inputs": [
        {
          "indexed": true,
          "internalType": "address",
          "name": "_from",
          "type": "address"
        },
        {
          "indexed": true,
          "internalType": "uint256",
          "name": "_propositionIndex",
          "type": "uint256"
        }
      ],
      "name": "Voted",
      "type": "event"
    },
    {
      "inputs": [],
      "name": "anonAadhaarVerifierAddr",
      "outputs": [
        {
          "internalType": "address",
          "name": "",
          "type": "address"
        }
      ],
      "stateMutability": "view",
      "type": "function"
    },
    {
      "inputs": [
        {
          "internalType": "uint256",
          "name": "_nullifier",
          "type": "uint256"
        }
      ],
      "name": "checkVoted",
      "outputs": [
        {
          "internalType": "bool",
          "name": "",
          "type": "bool"
        }
      ],
      "stateMutability": "view",
      "type": "function"
    },
    {
      "inputs": [
        {
          "internalType": "uint256",
          "name": "proposalIndex",
          "type": "uint256"
        }
      ],
      "name": "getProposal",
      "outputs": [
        {
          "internalType": "string",
          "name": "",
          "type": "string"
        },
        {
          "internalType": "uint256",
          "name": "",
          "type": "uint256"
        }
      ],
      "stateMutability": "view",
      "type": "function"
    },
    {
      "inputs": [],
      "name": "getProposalCount",
      "outputs": [
        {
          "internalType": "uint256",
          "name": "",
          "type": "uint256"
        }
      ],
      "stateMutability": "view",
      "type": "function"
    },
    {
      "inputs": [],
      "name": "getTotalVotes",
      "outputs": [
        {
          "internalType": "uint256",
          "name": "",
          "type": "uint256"
        }
      ],
      "stateMutability": "view",
      "type": "function"
    },
    {
      "inputs": [
        {
          "internalType": "uint256",
          "name": "",
          "type": "uint256"
        }
      ],
      "name": "hasVoted",
      "outputs": [
        {
          "internalType": "bool",
          "name": "",
          "type": "bool"
        }
      ],
      "stateMutability": "view",
      "type": "function"
    },
    {
      "inputs": [
        {
          "internalType": "uint256",
          "name": "",
          "type": "uint256"
        }
      ],
      "name": "proposals",
      "outputs": [
        {
          "internalType": "string",
          "name": "description",
          "type": "string"
        },
        {
          "internalType": "uint256",
          "name": "voteCount",
          "type": "uint256"
        }
      ],
      "stateMutability": "view",
      "type": "function"
    },
    {
      "inputs": [
        {
          "internalType": "uint256[2]",
          "name": "_pA",
          "type": "uint256[2]"
        },
        {
          "internalType": "uint256[2][2]",
          "name": "_pB",
          "type": "uint256[2][2]"
        },
        {
          "internalType": "uint256[2]",
          "name": "_pC",
          "type": "uint256[2]"
        },
        {
          "internalType": "uint256[34]",
          "name": "_pubSignals",
          "type": "uint256[34]"
        }
      ],
      "name": "verify",
      "outputs": [
        {
          "internalType": "bool",
          "name": "",
          "type": "bool"
        }
      ],
      "stateMutability": "view",
      "type": "function"
    },
    {
      "inputs": [
        {
          "internalType": "uint256",
          "name": "proposalIndex",
          "type": "uint256"
        },
        {
          "internalType": "uint256[2]",
          "name": "_pA",
          "type": "uint256[2]"
        },
        {
          "internalType": "uint256[2][2]",
          "name": "_pB",
          "type": "uint256[2][2]"
        },
        {
          "internalType": "uint256[2]",
          "name": "_pC",
          "type": "uint256[2]"
        },
        {
          "internalType": "uint256[34]",
          "name": "_pubSignals",
          "type": "uint256[34]"
        }
      ],
      "name": "voteForProposal",
      "outputs": [],
      "stateMutability": "nonpayable",
      "type": "function"
    },
    {
      "inputs": [],
      "name": "votingQuestion",
      "outputs": [
        {
          "internalType": "string",
          "name": "",
          "type": "string"
        }
      ],
      "stateMutability": "view",
      "type": "function"
    }
  ],
  "bytecode": "0x60806040523480156200001157600080fd5b506040516200184c3803806200184c83398181016040528101906200003791906200042d565b80600160006101000a81548173ffffffffffffffffffffffffffffffffffffffff021916908373ffffffffffffffffffffffffffffffffffffffff160217905550826000908162000089919062000712565b5060005b82518110156200012f5760026040518060400160405280858481518110620000ba57620000b9620007f9565b5b602002602001015181526020016000815250908060018154018082558091505060019003906000526020600020906002020160009091909190915060008201518160000190816200010c919062000712565b506020820151816001015550508080620001269062000857565b9150506200008d565b50505050620008a4565b6000604051905090565b600080fd5b600080fd5b600080fd5b600080fd5b6000601f19601f8301169050919050565b7f4e487b7100000000000000000000000000000000000000000000000000000000600052604160045260246000fd5b620001a28262000157565b810181811067ffffffffffffffff82111715620001c457620001c362000168565b5b80604052505050565b6000620001d962000139565b9050620001e7828262000197565b919050565b600067ffffffffffffffff8211156200020a576200020962000168565b5b620002158262000157565b9050602081019050919050565b60005b838110156200024257808201518184015260208101905062000225565b60008484015250505050565b6000620002656200025f84620001ec565b620001cd565b90508281526020810184848401111562000284576200028362000152565b5b6200029184828562000222565b509392505050565b600082601f830112620002b157620002b06200014d565b5b8151620002c38482602086016200024e565b91505092915050565b600067ffffffffffffffff821115620002ea57620002e962000168565b5b602082029050602081019050919050565b600080fd5b6000620003176200031184620002cc565b620001cd565b905080838252602082019050602084028301858111156200033d576200033c620002fb565b5b835b818110156200038b57805167ffffffffffffffff8111156200036657620003656200014d565b5b80860162000375898262000299565b855260208501945050506020810190506200033f565b5050509392505050565b600082601f830112620003ad57620003ac6200014d565b5b8151620003bf84826020860162000300565b91505092915050565b600073ffffffffffffffffffffffffffffffffffffffff82169050919050565b6000620003f582620003c8565b9050919050565b6200040781620003e8565b81146200041357600080fd5b50565b6000815190506200042781620003fc565b92915050565b60008060006060848603121562000449576200044862000143565b5b600084015167ffffffffffffffff8111156200046a576200046962000148565b5b620004788682870162000299565b935050602084015167ffffffffffffffff8111156200049c576200049b62000148565b5b620004aa8682870162000395565b9250506040620004bd8682870162000416565b9150509250925092565b600081519050919050565b7f4e487b7100000000000000000000000000000000000000000000000000000000600052602260045260246000fd5b600060028204905060018216806200051a57607f821691505b60208210810362000530576200052f620004d2565b5b50919050565b60008190508160005260206000209050919050565b60006020601f8301049050919050565b600082821b905092915050565b6000600883026200059a7fffffffffffffffffffffffffffffffffffffffffffffffffffffffffffffffff826200055b565b620005a686836200055b565b95508019841693508086168417925050509392505050565b6000819050919050565b6000819050919050565b6000620005f3620005ed620005e784620005be565b620005c8565b620005be565b9050919050565b6000819050919050565b6200060f83620005d2565b620006276200061e82620005fa565b84845462000568565b825550505050565b600090565b6200063e6200062f565b6200064b81848462000604565b505050565b5b8181101562000673576200066760008262000634565b60018101905062000651565b5050565b601f821115620006c2576200068c8162000536565b62000697846200054b565b81016020851015620006a7578190505b620006bf620006b6856200054b565b83018262000650565b50505b505050565b600082821c905092915050565b6000620006e760001984600802620006c7565b1980831691505092915050565b6000620007028383620006d4565b9150826002028217905092915050565b6200071d82620004c7565b67ffffffffffffffff81111562000739576200073862000168565b5b62000745825462000501565b6200075282828562000677565b600060209050601f8311600181146200078a576000841562000775578287015190505b620007818582620006f4565b865550620007f1565b601f1984166200079a8662000536565b60005b82811015620007c4578489015182556001820191506020850194506020810190506200079d565b86831015620007e45784890151620007e0601f891682620006d4565b8355505b6001600288020188555050505b505050505050565b7f4e487b7100000000000000000000000000000000000000000000000000000000600052603260045260246000fd5b7f4e487b7100000000000000000000000000000000000000000000000000000000600052601160045260246000fd5b60006200086482620005be565b91507fffffffffffffffffffffffffffffffffffffffffffffffffffffffffffffffff820362000899576200089862000828565b5b600182019050919050565b610f9880620008b46000396000f3fe608060405234801561001057600080fd5b506004361061009e5760003560e01c80639a0e7d66116100665780639a0e7d661461015c578063c08cc02d1461017a578063c7f758a814610198578063c9124323146101c9578063ecca031f146101f95761009e565b8063013cf08b146100a35780630dbffbcd146100d4578063470d8c2c146100f25780637f7658ff146101225780638c81162214610140575b600080fd5b6100bd60048036038101906100b8919061083f565b610229565b6040516100cb92919061090b565b60405180910390f35b6100dc6102e5565b6040516100e9919061097c565b60405180910390f35b61010c6004803603810190610107919061083f565b61030b565b60405161011991906109b2565b60405180910390f35b61012a610335565b60405161013791906109cd565b60405180910390f35b61015a60048036038101906101559190610a5a565b6103c3565b005b610164610598565b6040516101719190610ad7565b60405180910390f35b6101826105fd565b60405161018f9190610ad7565b60405180910390f35b6101b260048036038101906101ad919061083f565b61060a565b6040516101c092919061090b565b60405180910390f35b6101e360048036038101906101de9190610af2565b610736565b6040516101f091906109b2565b60405180910390f35b610213600480360381019061020e919061083f565b6107e4565b60405161022091906109b2565b60405180910390f35b6002818154811061023957600080fd5b906000526020600020906002020160009150905080600001805461025c90610b8a565b80601f016020809104026020016040519081016040528092919081815260200182805461028890610b8a565b80156102d55780601f106102aa576101008083540402835291602001916102d5565b820191906000526020600020905b8154815290600101906020018083116102b857829003601f168201915b5050505050908060010154905082565b600160009054906101000a900473ffffffffffffffffffffffffffffffffffffffff1681565b60006003600083815260200190815260200160002060009054906101000a900460ff169050919050565b6000805461034290610b8a565b80601f016020809104026020016040519081016040528092919081815260200182805461036e90610b8a565b80156103bb5780601f10610390576101008083540402835291602001916103bb565b820191906000526020600020905b81548152906001019060200180831161039e57829003601f168201915b505050505081565b600280549050851061040a576040517f08c379a000000000000000000000000000000000000000000000000000000000815260040161040190610c07565b60405180910390fd5b600360008260006022811061042257610421610c27565b5b6020020135815260200190815260200160002060009054906101000a900460ff1615610483576040517f08c379a000000000000000000000000000000000000000000000000000000000815260040161047a90610ca2565b60405180910390fd5b61048f84848484610736565b6104ce576040517f08c379a00000000000000000000000000000000000000000000000000000000081526004016104c590610d0e565b60405180910390fd5b600285815481106104e2576104e1610c27565b5b9060005260206000209060020201600101600081548092919061050490610d5d565b91905055506001600360008360006022811061052357610522610c27565b5b6020020135815260200190815260200160002060006101000a81548160ff021916908315150217905550843373ffffffffffffffffffffffffffffffffffffffff167f4d99b957a2bc29a30ebd96a7be8e68fe50a3c701db28a91436490b7d53870ca460405160405180910390a35050505050565b6000806000905060005b6002805490508110156105f557600281815481106105c3576105c2610c27565b5b906000526020600020906002020160010154826105e09190610da5565b915080806105ed90610d5d565b9150506105a2565b508091505090565b6000600280549050905090565b606060006002805490508310610655576040517f08c379a000000000000000000000000000000000000000000000000000000000815260040161064c90610c07565b60405180910390fd5b60006002848154811061066b5761066a610c27565b5b906000526020600020906002020160405180604001604052908160008201805461069490610b8a565b80601f01602080910402602001604051908101604052809291908181526020018280546106c090610b8a565b801561070d5780601f106106e25761010080835404028352916020019161070d565b820191906000526020600020905b8154815290600101906020018083116106f057829003601f168201915b505050505081526020016001820154815250509050806000015181602001519250925050915091565b6000600160009054906101000a900473ffffffffffffffffffffffffffffffffffffffff1673ffffffffffffffffffffffffffffffffffffffff16638525a61d868686866040518563ffffffff1660e01b81526004016107999493929190610ec2565b602060405180830381865afa1580156107b6573d6000803e3d6000fd5b505050506040513d601f19601f820116820180604052508101906107da9190610f35565b9050949350505050565b60036020528060005260406000206000915054906101000a900460ff1681565b600080fd5b6000819050919050565b61081c81610809565b811461082757600080fd5b50565b60008135905061083981610813565b92915050565b60006020828403121561085557610854610804565b5b60006108638482850161082a565b91505092915050565b600081519050919050565b600082825260208201905092915050565b60005b838110156108a657808201518184015260208101905061088b565b60008484015250505050565b6000601f19601f8301169050919050565b60006108ce8261086c565b6108d88185610877565b93506108e8818560208601610888565b6108f1816108b2565b840191505092915050565b61090581610809565b82525050565b6000604082019050818103600083015261092581856108c3565b905061093460208301846108fc565b9392505050565b600073ffffffffffffffffffffffffffffffffffffffff82169050919050565b60006109668261093b565b9050919050565b6109768161095b565b82525050565b6000602082019050610991600083018461096d565b92915050565b60008115159050919050565b6109ac81610997565b82525050565b60006020820190506109c760008301846109a3565b92915050565b600060208201905081810360008301526109e781846108c3565b905092915050565b600080fd5b600081905082602060020282011115610a1057610a0f6109ef565b5b92915050565b600081905082604060020282011115610a3257610a316109ef565b5b92915050565b600081905082602060220282011115610a5457610a536109ef565b5b92915050565b60008060008060006105608688031215610a7757610a76610804565b5b6000610a858882890161082a565b9550506020610a96888289016109f4565b9450506060610aa788828901610a16565b93505060e0610ab8888289016109f4565b925050610120610aca88828901610a38565b9150509295509295909350565b6000602082019050610aec60008301846108fc565b92915050565b6000806000806105408587031215610b0d57610b0c610804565b5b6000610b1b878288016109f4565b9450506040610b2c87828801610a16565b93505060c0610b3d878288016109f4565b925050610100610b4f87828801610a38565b91505092959194509250565b7f4e487b7100000000000000000000000000000000000000000000000000000000600052602260045260246000fd5b60006002820490506001821680610ba257607f821691505b602082108103610bb557610bb4610b5b565b5b50919050565b7f496e76616c69642070726f706f73616c20696e64657800000000000000000000600082015250565b6000610bf1601683610877565b9150610bfc82610bbb565b602082019050919050565b60006020820190508181036000830152610c2081610be4565b9050919050565b7f4e487b7100000000000000000000000000000000000000000000000000000000600052603260045260246000fd5b7f596f75206861766520616c726561647920766f74656400000000000000000000600082015250565b6000610c8c601683610877565b9150610c9782610c56565b602082019050919050565b60006020820190508181036000830152610cbb81610c7f565b9050919050565b7f596f7572206964656e646974792070726f6f66206973206e6f742076616c6964600082015250565b6000610cf8602083610877565b9150610d0382610cc2565b602082019050919050565b60006020820190508181036000830152610d2781610ceb565b9050919050565b7f4e487b7100000000000000000000000000000000000000000000000000000000600052601160045260246000fd5b6000610d6882610809565b91507fffffffffffffffffffffffffffffffffffffffffffffffffffffffffffffffff8203610d9a57610d99610d2e565b5b600182019050919050565b6000610db082610809565b9150610dbb83610809565b9250828201905080821115610dd357610dd2610d2e565b5b92915050565b82818337505050565b610dee60408383610dd9565b5050565b600060029050919050565b600081905092915050565b6000819050919050565b610e1e60408383610dd9565b5050565b6000610e2e8383610e12565b60408301905092915050565b600082905092915050565b6000604082019050919050565b610e5b81610df2565b610e658184610dfd565b9250610e7082610e08565b8060005b83811015610ea957610e868284610e3a565b610e908782610e22565b9650610e9b83610e45565b925050600181019050610e74565b505050505050565b610ebe6104408383610dd9565b5050565b600061054082019050610ed86000830187610de2565b610ee56040830186610e52565b610ef260c0830185610de2565b610f00610100830184610eb1565b95945050505050565b610f1281610997565b8114610f1d57600080fd5b50565b600081519050610f2f81610f09565b92915050565b600060208284031215610f4b57610f4a610804565b5b6000610f5984828501610f20565b9150509291505056fea2646970667358221220501dfe6a6b5a9aed33fa12b3d2edf9ea142e9bb6b5999a21bfb94e4d4024ebc964736f6c63430008130033",
  "linkReferences": {},
  "deployedLinkReferences": {}
}